:100000000C943E000C9450000C9450000C94500042
:100010000C9450000C9450000C9450000C94500020
:100020000C9450000C9450000C9450000C94500010
:100030000C9450000C9450000C9450000C94500000
:100040000C9450000C9450000C9450000C945000F0
:100050000C9450000C9450000C9450000C945000E0
:100060000C9450000C9450000C9450000C945000D0
:100070000C9450000C9450000C94500011241FBE9E
:10008000CFEFD0E1DEBFCDBF21E0A0E0B1E001C005
:100090001D92AE30B207E1F70E947E000C949E00E4
:1000A0000C9400000F931F93CF93DF9300D0CDB734
:1000B000DEB79A83898389819A81009719F480E059
:1000C00090E015C089819A818130910519F481E011
:1000D00090E00DC089819A8101970E9452008C01A5
:1000E00089819A8102970E945200800F911F0F9080
:1000F0000F90DF91CF911F910F910895CF93DF93D0
:10010000CDB7DEB785E490E025E430E0F901208149
:100110002160FC0120838EE690E02EE630E0F901BC
:1001200020812160FC01208384E890E0FC011182A1
:1001300010828AE090E00E945200FBCFF894FFCF3B
:00000001FF
