:100000000C943E000C9450000C9450000C94500042
:100010000C9450000C9450000C9450000C94500020
:100020000C9450000C9450000C9450000C94500010
:100030000C9450000C9450000C9450000C94500000
:100040000C9450000C9450000C9450000C945000F0
:100050000C9450000C9450000C9450000C945000E0
:100060000C9450000C9450000C9450000C945000D0
:100070000C9450000C9450000C94500011241FBE9E
:10008000CFEFD0E1DEBFCDBF21E0A0E0B1E001C005
:100090001D92AE30B207E1F70E946F010C94B101DE
:1000A0000C9400007D91522F232F352F2727522F9C
:1000B00052955F702527522F5295507F3527522F2A
:1000C0005295452F507F4F70550F441F25273427D9
:1000D000019741F70895A883B983AA83BB83AC83B2
:1000E000BD830895A881BA81AB1731F4A981BB8182
:1000F000AB1711F4AA810895AC81BA81AB1731F422
:10010000AD81BB81AB1711F4AA810895A881B98193
:10011000089511901D920197E1F711240895F89424
:100120001F921F922F933F934F935F937F938F93D1
:100130009F93AF93BF932FEF3FEF25970E947200DD
:10014000CD01DE0125960E945200BF91AF919F9193
:100150008F917F915F914F912997388329832996B9
:100160003F912F911F928F939F93AF93BF93EF93E4
:10017000FF932597FE010E947200CD012596CF9333
:10018000DF93CEE0D1E00E9472000E9489000E94BD
:100190006B00DF91CF91FF91EF91BF91AF919F9154
:1001A0008F911F900F931F93CF93DF9300D0CDB704
:1001B000DEB7AF93AF93AF93AF93AF93AF93AF93DC
:1001C000ACE02597A883AA83AC83A0E0A983AB8386
:1001D000AD83AF9125969A83898389819A8100970F
:1001E00019F480E090E015C089819A8181309105F1
:1001F00019F481E090E00DC089819A8101970E94F5
:100200008F008C0189819A8102970E948F00800F54
:10021000911F22960FB6F894DEBF0FBECDBFDF91BF
:10022000CF911F910F912F933F936F934F935F93B4
:100230007F938F939F93AF93BF932FEF3FEF2597BC
:100240000E947200CD01DE0125960E945200BF91EE
:10025000AF919F918F917F915F914F912997688185
:10026000631799F46981621781F424960E947200E1
:10027000CD01CF93DF93CEE0D1E00E947200A81BA6
:10028000B90B0E946B00299623C01F928F939F93F6
:10029000AF93BF93EF93FF9324960E947200CD011A
:1002A000CF93DF93CEE0D1E00E947200A81BB90B80
:1002B0000E946B00FD01DF91CF91DE010E94890059
:1002C0002596FF91EF91BF91AF919F918F911F90D4
:1002D0006F913F912F911F901F9011240895CF93FC
:1002E000DF93CDB7DEB7AF93AF93AF93AF93AF9339
:1002F000AF93AF93AAE02597A883AA83AC83A0E02D
:10030000A983AB83AD83AF912596CF93DF93FF9302
:10031000CEE0D1E0F4E1F883FA83FC83F1E0F983E5
:10032000FB83FD83FF91DF91CF9185E490E025E48D
:1003300030E0F90120812160FC0120838EE690E00D
:100340002EE630E0F90120812160FC01208384E861
:1003500090E0FC01118210828AE090E00E948F0000
:06036000FBCFF894FFCF73
:00000001FF
