:100000000C943D400C945A400C945A400C945A4025
:100010000C945A400C945A400C945A400C945A40F8
:100020000C945A400C945A400C945A400C945A40E8
:100030000C945A400C945A400C945A400C945A40D8
:100040000C945A400C945A400C9499400C945A4089
:100050000C945A400C945A400C945A400C945A40B8
:100060000C945A400C945A400C945A400C945A40A8
:100070000C945A400C945A400C945A400500B40019
:10008000C70029005E00BF00500045000F00BD0002
:1000900011004A00250015005D006B00C800130028
:1000A00042008700A900C5002F001000830028002F
:1000B0003D009700870082000700070003005E00F4
:1000C00076007000B4008A009F000900060040001E
:1000D00097004A004100C7001A00AF0002005C0010
:1000E0009500BB0078008D00C300BD006900590079
:1000F0005E0019005700A9004E005E003D005A0046
:100100000600B6007400BC00B9009F00AF00950067
:1001100021009700AE004D002C002A004A0010007C
:10012000C0002800B500B100C6001C00AF00B70039
:1001300023002600AE006D006B008E00B100780039
:10014000B8004600C2000900520070005700580075
:100150004A000000C00068008C003E005B004E00BA
:100160003F0027004D0049005500C500570006001C
:10017000A8007A00A700C5005E00450076001900BF
:1001800045002900AA005400BB000D005B000A00D6
:100190000700AC001E007C008B0082006B00410059
:1001A000A200A8000800C60066006C00A2009A0029
:1001B00052002F0061004F0047009B001D0085008A
:1001C0000A0002005000440033008B005100A300DD
:1001D00053003A003100B6004600600095003F0031
:1001E000B8003D001F0075007300750061006500D8
:1001F000540018004D00B5005600070011004D00D6
:1002000053006500110012002F00760088003D00A9
:1002100053006A005F006700C2008D000D003000CF
:100220009B00B9005100B4000B007700950012004C
:10023000070071004F008700C200BD009800AF00AA
:100240003B008A009000C300B50073006500830086
:100250005200B90049006F00B500C2002D004F00E8
:100260001D003700A3008D005B009A008F00B200D4
:10027000000019008A00A9005900000052002D005A
:100280003A0099006800290035002D00BC004E009E
:10029000640015009F00230077008200BC008000EE
:1002A0003E00260089008E004F0005004E008C00A5
:1002B00087006100AE005E00420052001400C700DB
:1002C00056000F00BD00BE006000A400AF007B0020
:1002D0003E00BB00C6004D007B00AA0087002E0038
:1002E000260086008E0071007200040074009900E0
:1002F000C6007A00A70077002E00180099002100A0
:1003000061004400B7005200AA0044000800A000A9
:1003100007005A00710033007B0043009700B500CE
:100320003D00BF00BF00C00098001400C200AB0039
:1003300056008300A1003400A700AA001B002A0079
:100340008F00420078008F0086006F001000B70019
:100350006E00BF004E009A00430085004C00B500BF
:10036000900065009E006700AF0047000D001D0073
:100370001F00060048005800BB00B600A3001E0086
:100380000A0021006B00BF004A00B00051004F007E
:100390003000B5009400B2007F0010007000B7007C
:1003A0001B000200B1009C00B100720030004B0045
:1003B000AE0040005A000D0056005B0032004400C1
:1003C000BC00140085002A006A0056003700270090
:1003D0001B000C00280076004E0065001B000B007F
:1003E000A80042004D004700AD00390088008000A1
:1003F000B6004A00470019003A00360095008B000D
:100400006300860023006E0094002000A700810096
:10041000A40043009700970085008600AE0001000D
:1004200090007A007C00940004008C004F00710062
:1004300017002D008D0057007200BC004E006D00AB
:100440004E0070008400BB008D00770008007E0025
:100450006200AF00860038007000BE003500A700C3
:10046000320022004F0058007800A10047003500FC
:1004700005001A005400B7005900860026009A00B3
:10048000AF0098000A00470033000D0091005C00A7
:10049000C4000E007600C40038005E0090000E001C
:1004A000610074009C00B500B8002F002E003100E0
:1004B00090007100A7004C0022005F00C3007D0087
:1004C000A60048007900A3003D007B006100BC004D
:1004D0007D00630063008E001E000A006700A0001C
:1004E000110075002E00790065005400790072003B
:1004F000B2002E0075007D00120006004800B30017
:100500008C00A400C0001C00AD000000B400370047
:100510005900C20088002D00730034008B00620077
:100520003B0024006B00B600AB005900B4008D0006
:10053000A2000E008A00510085009900B1009E00C3
:100540006D00880005003C00C7008B002F003500BF
:10055000C8006600AA003900000048002C00110005
:10056000C70073009D0024007C0019005200790030
:1005700047002C005E0062005500A500B300060095
:10058000C600A00020001500B600AA0093000700D6
:1005900057004B00C3007C000A004800A4000D0077
:1005A00074002C0061009A006C000A002800900082
:1005B000C300C8007C006F00040003007300A100AA
:1005C0003C002100C0004C00AC0051004A00390042
:1005D0006F0009005700B4005100C4001C00400027
:1005E00019008F005700C4005C005B003200C2009D
:1005F000910000001B003D001A00BF00C3008F00E7
:100600003E000D005000B8003100C4000B0019007E
:1006100088002100B600A400A400790080002B000F
:100620003200C1009A0016003300460040008000EE
:10063000350006004F0046007C00B400BF00AF004C
:100640005200C700AB0060006700B90069002500D8
:100650009D0081005F00BF00230057007A007A00F0
:10066000200003000C004A00C100500012007F006F
:10067000AC000D001A003E004E00B0003400AF0088
:1006800080007700BF00A600360038003A006800FE
:100690004D0083006100BE00530041002A00A0000D
:1006A0008B0026000D00040090000B0006003300B4
:1006B0003E004E0052009D005A007D0058009600FA
:1006C0007E009F00970079001900A8009C0081001F
:1006D0007D005C00830044007D00A8005000740091
:1006E0002F0004000700220088005E00580031003F
:1006F0001300540077003B00B1006F00BC00050000
:100700007000950078006600AB0018002E0077009E
:1007100033008C0013008B00B8003F000C00220057
:10072000A40030006200080025005E006C00A800F4
:100730002800A90058005100B800AD00C3008C008B
:100740002D0097002200240037003D009800AB00E8
:1007500070000F0025005F006D009400A6003E00B1
:1007600003009B003A0094007600850038009D004D
:1007700039006B0008006D00A200590082002400BF
:100780000F00580071002A0048004B00380040005C
:10079000650081008F002000AD00B200300026000F
:1007A0000500A900850041005400440071002C00A0
:1007B00067007600A7002A00BE00AB00BE0056000E
:1007C00002006C001B0025001600C30073005C00D3
:1007D000710078009C002B0037002C0082005F0025
:1007E0008000A4002900AA00260066001200A400D0
:1007F000950043007500A600A60057007B00A400EA
:100800008C0014007F007D0084005A0036001B001D
:10081000B2004700A10006004200B5003C003100D4
:100820002A003E0097004B008200B4004E008D006D
:100830004B0047005200960002002F0038002600AF
:1008400032003F001C000A002E00BC00A3008800FC
:1008500016007600780000007A00A40027001B0034
:10086000970024007C00B3006300C400A80055007A
:10087000470049009B004C00210001005C00B800CB
:100880005F007C001000BF001D002A006B00B50057
:10089000710027003D005700AD007C0034002200AD
:1008A000A60056004E0048007B00B5008A000E00EE
:1008B000420046006200060007003100530093002A
:1008C000910090002C0098009E00A9007600200066
:1008D0001A0029004D008900B0007E003100BC00E4
:1008E0006C004A00C8008B00C400790005001D00A0
:1008F0005A006A008F0000005D0012004800C0002E
:10090000BD0059008700B3008B000700C600160029
:100910003E00C500860004007000B5008D004B004D
:100920008F0061008E009E007800800091007E00A4
:100930005F004200B900760057006A0034003C00B6
:100940008D00BC00B20097005300A40069000F00A6
:100950001F00000041008B00AC0027001100C10007
:10096000810062002400710080004B0077000200CB
:10097000A6004600BF00C300BD001E000200C30069
:100980001A005D0083008B008000A700BD00890075
:100990003F000E00AD00BA00BA00090082008500D9
:1009A000400038004300A2004400A8002F002900A6
:1009B00057006300010053001E0040003100790021
:1009C000C1007E001800050022006100940017009D
:1009D0000E0013001900B900B50080006900AC00DA
:1009E0002D0002006F004200C6009D0012007C0036
:1009F000B000A10073000C003500180070004F001B
:100A00006E0013009E000400B200BE003800030018
:100A100039003E003C00A2000C00AF0084005A00E8
:100A200067000B005700BE000D009700570015002F
:100A30003900750071000B007B0040003700BA00E0
:100A4000A100BC005D00C200960003009F00610091
:100A50004F001600C10096009D005E00AD0098009A
:100A6000B6000000030048000600B4005700C700AD
:100A700054004200230066007D00570088003200C9
:100A80003100360044001500A000360045000D007E
:100A90005A001000C100A300660093009B00720082
:100AA000970082008000410069001D000E001000C8
:100AB0007D00A400C1006A009E008900A000C10062
:100AC000C4006800BA007C002A00C500A4009F0092
:100AD000120011006F001300A2009900AD002B005E
:100AE000B5000400C20064002F001C001F00870036
:100AF000A200BD00A50019008F0004006D000B00CE
:100B0000930045001000860031002200C8002F002D
:100B1000690025003D00750044004C006900560046
:100B2000AF0044000B006500C50037004B006200B9
:100B30006800B600C4004300110015008700C8001B
:100B40009D00780004004C0030007100590039000D
:100B50007700870015004300A5001600AD00520085
:100B6000A100080039000200810077002B009000EE
:100B7000B1000E000B001F008D004500A600930081
:100B800007003C003800B1007C0075007800590077
:100B90009300050033003A0013002900C100A800AB
:100BA0004600AD00490077002600B4000D0011009A
:100BB00078000F00C50068005D00A6004B009000A3
:100BC000C800970097003200B6004A0091007C00F0
:100BD000B400BD0041004A00170074008300B70054
:100BE0009F0089004B00A0008C008E001700910030
:100BF000C100930002004A003D0049008700A9009F
:100C0000910062008C0062009600A200C5002300E3
:100C10009800500037006800B000C2007F00290033
:100C200005007400880020004B0035004C002C00AB
:100C3000B70012009B0078003F006200A400530040
:100C4000B700280085008000AF0067004400BF00A7
:100C500062006C004F007800650094006100A800FD
:100C60006900B900110023005C006500A0008A0043
:100C7000BB004E0030000D00870062009D003E006A
:100C80009E00AF0076008C000D00A10071003D00B9
:100C9000AE008B0040005E002900020077004A0091
:100CA00043002D0088003C003D0017000C0084002C
:100CB00010001C008B0079007D0041004F00A30054
:100CC0003400780094007300320089004100C700AE
:100CD000390065000600BE003B0080002800AB0024
:100CE0001E003F00AA00C1004C0062009A002400D0
:100CF00013000000A000000067008C004200880084
:100D00009B00A2008D0026005000B4001A0039009C
:100D100098009500AA009D001E0021004A00940042
:100D20002500160055007000280098004600950028
:100D30002900BE006D0009009C0001000E00180093
:100D40004D00130062005B008200BC004300B30052
:100D50009F005D005A0098003A00AC000E000300AE
:100D60004000B3006A0066005C008A00070039009A
:100D700039000F0038005B00C4004C00C100B20015
:100D800090003600470024002000C8001300020035
:100D90007D00B300A2007300380091000700170027
:100DA000C50003007C001200AD00B300BC002F00A2
:100DB000AA0093008700BA00980090002A001A0049
:100DC00004004500B90031002600C0005E00440068
:100DD000C60067003D00C100A3005B00B200BF0079
:100DE0002600280067007E002900790006006100C7
:100DF000B4006A0096002200A0006D00AA00620004
:100E000018007E003000510024005B003A00C3004F
:100E1000290002007B006C00860067001300B3000D
:100E200076002E00500050005D00A3001000570017
:100E300014003200B500A300C00020009800090093
:100E40005C006C007A0058006900AC003F00630051
:100E500036003200A400BB008B000200C3009F00DC
:100E60005700330091008500830029009A00B800E4
:100E70009000B400A00058001E00770085005400C8
:100E80000500A1008A000E00A8002700110006003E
:100E90009200500036009C00A800AD007C00BF000E
:100EA00062006C004B007E00A60030006B00280042
:100EB00077008E006E008900480071001F007C00E2
:100EC00060003F006300C30097003200C8001100BB
:100ED00089009E008C007700260079000E0021001A
:100EE00021007D0063005E002B00060092000E00D2
:100EF00019001700630009008D005F007A002700C9
:100F0000C30029005300A80009006F003D008200C3
:100F1000AD00C6002900BD00B100720020008300B2
:100F200068003200870048001D005D0064009E00DC
:100F30004E00A80058000F0047006E003A0017004E
:100F40004600A7001A003F006500400015002C0075
:100F500082009200200044002100A00069001E00D1
:100F60000F0044009A004C00C6001200AE000600BC
:100F7000BE008B0056002F00820084003D00A000C0
:100F8000C60099008A00C2001A005C0046009A0060
:100F9000B5000A0047002B004500C4009500AB00D7
:100FA00010001400C600810027002A0091000000F4
:100FB0000F00A800B9000300B9004C0076002C0017
:100FC000B100980068005100BA0082009E007F00C6
:100FD00018001C00B2000B00B20080001B004F0084
:100FE0004100BA00B50028004D00AB00920042005D
:100FF0006C0072008600A10088000C00BF00930006
:101000007900AE0040001D00C8002F0009009B00C1
:1010100062005D00240029003C00B400B500B70068
:101020001C00530053000B002D009B0053001C00BC
:1010300098005A009F0004005C0091000000290005
:10104000440039002400900078004B007A006100D1
:101050007C0087000E00190027008A001C00C600D3
:10106000670054009B0034005E004D002F00060016
:101070008F002F009B00C800C00016002A00C5008A
:10108000A5005800670075000200A5009A007B00CB
:10109000AF007B00820011003B00800092008B00BB
:1010A0000600C30077009500C500AF0045000900A9
:1010B0000500B8004F001700B7009400B200A5006B
:1010C0006000070016002A0080001B0089005B00FA
:1010D0001000490055005D0050000E004E006D00EC
:1010E000AA004A00A10054008B001B00B0008C0035
:1010F000A7008500A8007D0024009C003200C800E5
:101100002900B3000F0002000400700049009500A0
:101110009B00390029006400500003009200740015
:101120008F000C008800300089009B009200C600F0
:10113000C200BA006F00A100930022002E003A0006
:1011400078002100A800470092000D007F008C006D
:10115000C200AE0020005C003C003D001D002D00E0
:10116000C3009D00AF00020010001600840049007B
:10117000950042005600B700720066009600A80075
:101180009D001E002E007700590044002800060034
:101190004C00AF00A000710024004A00BF005500C1
:1011A0007100610042007A0015002D0038009B009C
:1011B0002100920077001B00A50024005400450088
:1011C0005E004B004D001200BC00A0006F00BA0092
:1011D00037003200C100040027005C0030007400BA
:1011E000040033004900AE001700AD000E00770088
:1011F00099002A007F00840098003100A900C100F6
:1012000007007A009900120013006C001800C20059
:101210005A002600AE00C20085006600BE007700BE
:1012200064006100800067006400690034008D0084
:1012300092000B0048007900830063004B003100EE
:101240004F00A2003200AD00B50059001000370079
:1012500056001B000A006700B8001D00BB00990083
:1012600086009C001C003A00A2004D0008005700B8
:1012700097009B0000001800BF0053003500450098
:101280000D002400BF00850055000B0065005700CD
:10129000260083004C00A200590091009F00BE0070
:1012A000B500B3003100BF007A0048004F0077005E
:1012B000310012001D0035001D0035006C00930048
:1012C0001900180057008800990087003B005E0055
:1012D000520076001400B2009B0049000400510047
:1012E0000F00B3008100210081001B001A0059008B
:1012F0000D00C80084000F00AC00C1001B0060009E
:1013000043003A006E0008002D0032002600B000B5
:101310003D0005009D009C007200AE00C200AE00C2
:101320008E00C3004100720088000C00B6009300DC
:101330009C007B009C00790092002600A000090020
:10134000C10062006400C10019006F009C008300AE
:101350008B002F003F00640073009700A000700016
:10136000AD007F008F00A1007C00260031008500C9
:101370006B0047001B00A6007D0048001A004D00CE
:10138000B800A300A3005D00BC0005006D002F00A5
:1013900001009000C800C7007900340072002A00E4
:1013A00036006900640054005C003F006A00B80029
:1013B000C600A6007E008700460066007400B400E8
:1013C00088007100530082001B009E008D006900A0
:1013D00033002700550030007B0044001200B400A9
:1013E0002A006E009D00050032000000BA00810056
:1013F0006000A50068001300C10064005800690087
:1014000042002D00650077004E0093004F00B900A8
:10141000050073006B0018007D00890019003F0073
:101420006F00A400B70015002300590063005E00A0
:10143000B50057005E00C1005C00B200A30073005D
:101440006D006700890035004C005E007A003600B0
:10145000690002007B00670093008E0020006B0093
:101460009B0087008D001F00690076001900610055
:101470009400B3004F0022000400B1008C00B400BF
:1014800077004900B2008500C20039002000B0009A
:101490007300B5003C003A001E0066008400120094
:1014A000BD008400290087007D001C006C00260020
:1014B0001700860081006A00C0006100B9009D002D
:1014C000440000004A009000C8002E008700680019
:1014D0006800A800730031002B00B700A7000C00C3
:1014E0008D007000AF001100BD005D00410088005C
:1014F0008E006300A700A9006D0051001600C8000F
:101500002D008F00930047006D00050083006600EA
:101510004600790097001E00370062009600B40074
:10152000400043006000970004008800B6004E00B1
:1015300099003900C400B10039000900A4009A00E4
:1015400043002000C10060008100250055006700B5
:1015500087002F006800A100AC006A004A007600F6
:1015600082002A0027001000660080006800380012
:1015700024001E0055004A0087006C0045009F00B3
:101580003A001E003E00BB006100AE002F00940038
:101590007C00C500A900B2006F0003005800710074
:1015A00012007D00560054001800AC003F00A5005A
:1015B00051005C00A400000050009300B90034000A
:1015C000440089005D0067004A0002000900B00085
:1015D000C00042001A00120004008100740099004B
:1015E00095002800050008008C0079002400B20056
:1015F0006400A30029006400190028007000A50001
:101600003E0010004C0006008B00290099000400E9
:101610000700BB000B0010000900AA0031006500A4
:1016200027009F001E002D001D00B100C300AD006B
:101630001800C000C6005F008B0031001E006B0068
:101640007C0098004F003500AF009D001400A00002
:10165000A7008F007E0061005F009E009400810063
:10166000890068003F002F0068004C003D006E00BC
:101670006900BE00A1006C000800AE00530002002B
:10168000380053002700BC006500AB00790039002A
:10169000AD009A003C00B6003D0042002E006A00FA
:1016A000030087003E003A00B3006C00880032005F
:1016B0006F00C8009C00390023009E00B9003A006A
:1016C000BF00C3009E0090002E0026008D00C400C5
:1016D0003A005D009100BB006E000C008900B6006E
:1016E0007A0098004E006B005E005D004800980094
:1016F0007A006B003500300021005C001200B4005D
:101700009E00750067003E00A40034007C00BB0012
:10171000A000470005000B004F003A00BF00090081
:1017200058006A000600230074000C007500420097
:10173000940035000800BD002A000B002200A00024
:101740007A0071001500400014003F005F00750032
:1017500099002C0079009C00090001008D00840094
:101760002000BA001D0037007100AD0045007C006C
:1017700070000E002300B1007C005A0038005C00AD
:101780009E0062007F004600C80039002200B600BB
:1017900010000A002C007800AF00C8005700B70006
:1017A000B3001B00C100C200C00029006300AD00EF
:1017B0003E000700140064009C002B0041009E00C6
:1017C0004B001C00560002006D00A10061003A00B1
:1017D00032000A00BF00BA003B0090006C005E00BF
:1017E00064006E00030039003B00140093008D007C
:1017F0009600660077002F001B009200170029005A
:10180000B2006E003500A300B40038001200820060
:101810004F0088003B002C00A00043002D00620018
:101820003A009F002C003300370032007700270079
:10183000410004009C005E003B00C50035006600CE
:101840006700B4002D0038003200A1004F003900BD
:10185000280071000300A6000D0098006C006500D0
:1018600037008900AA00B10082001E006300020058
:101870000200440015007600B4009B0039000D0002
:101880000C0084008F00B200B9002200970008000D
:10189000C3007C0030000E00960076004C007B00F8
:1018A00003003A005F001B003800BB0081001800F5
:1018B000510055005300B2008C00710058008A009E
:1018C000A70062006A000E004300BB0039002C0034
:1018D0007200AE0059003D008B00230064004700F9
:1018E0008600B1000500BB00190068001800160052
:1018F00088006400A200890070006A00BD007700C3
:10190000AA00330097003200BC003F0000007400C2
:1019100067008C0060009F009E0073005A008B00DF
:10192000C000BB00A50024002C006600AD00BA007A
:1019300077000000A3002F0055007A009D00720080
:1019400079000D00A600A7004C00400094003F0065
:10195000AC0072005D009C00C80071008A001A0093
:101960003C00190063009300930033007B000B00E0
:10197000730068003000A000450059009C009B00E7
:101980003C00300077001D003F00770026001A0061
:1019900039003600C0006A005A007E005C00750005
:1019A00071005D00C1005E00AC009800C2005200F2
:1019B0007200BB0040007200510046008700B20078
:1019C00078003D0023006C006A007600B500250019
:1019D000030096009C0024003A00C600B4005B009F
:1019E0004200020070001B00BD00A3005400540020
:1019F00010003F0067009000B3005700C4000C00C7
:101A0000B400010009003800B70051002C001D008F
:101A1000BD0024002100B8009F007100C1008200B9
:101A20008D002500C50074005200B4002B00B800E2
:101A30004200C70093004B0015005D000C00B00091
:101A4000180046000D0082005400B2004900110049
:101A50006400C7007A00AF004400C7005A005C0071
:101A600056006F00270063009E002F006B002D00C2
:101A70000700550029008A005500C4001E005C00C4
:101A8000970064004B00AE0018007B0053006F000D
:101A900094009F00C80015005400850000009100CC
:101AA000A200B7006C007900830091004800280074
:101AB0006900490054008F0053001F0047003D009B
:101AC000B400B100610017002100A70033007E00C0
:101AD0003C0057007A0095006A00880017009100CA
:101AE0009400360092007C00950002005F000D001B
:101AF00097009800440067007F00C2006A005C0005
:101B00003F0015003C0075009E0075007D009D00A3
:101B10004D00C200C3009D0045009F0016002B0031
:101B20009900B4009A001E00A6005F0073007200C6
:101B30003100A200240012009F0013005D004D0040
:101B400032000A00C7004E004B006F001E0001006B
:101B5000AB008400C70029007A0073002500500004
:101B6000B9002C000C00A900A5001E002100BF0038
:101B70001400AA006E005A008500B50097000B0003
:101B8000800097001700880042002A002F0097006D
:101B900013000400C60005001E0031004800C50007
:101BA000C300C100400036008A00B0007B00AB00DB
:101BB000090068004400670022006400A600B50028
:101BC000C000660077005C0027008C002100BA008E
:101BD00019009A0065002200B5009E006200110005
:101BE0001C00BF007900C80068001D001A005800E2
:101BF00050007F00AE0035003300910001009900D5
:101C00003500AC007A00A4007600B8000E00B900E0
:101C10007600A60065006D00AF00A90039004800FD
:101C2000410047003E006C005B002D009400410025
:101C30000A00300095006D00C8000A004900040049
:101C400038005A00990099002D004E00B9006E002E
:101C50007F0046003700C8002B00AB003900B400FD
:101C6000040060002B005700A500080044007C0021
:101C700061007500B6002D006E00A200BA006A0077
:101C800030003E0001003300BC006500660021000A
:101C90000C008E00600058001600BC00BA002F0037
:101CA0003800AE004F000F00BA0035008400A600D7
:101CB000A70021008E0021002100BE0063006E00FD
:101CC00003006B006D0031007700360064006F0088
:101CD0003A0067000E007D00B100AF0050005A00CE
:101CE000950044003F00C2002C003E00340000007C
:101CF00093008B0094001700300023009000AA008E
:101D00000B0066000D008A00310056005300C10030
:101D100034006D004A004900B6003800A400C70036
:101D20008700A6008E005E003B00340077007E0036
:101D3000660010000700B6002400B10019008800FA
:101D40005400AF005D005100C00059006C0013004A
:101D50007400AE000B0054008F0050001300AB0065
:101D6000BF0074009A00BF009800C000B800870050
:101D7000C4005800BA00290069002D000900940031
:101D80009700560011003A00B500690019002900BB
:101D900051008A0019006500A900300006005C00AF
:101DA000C000C500B50097004500BC003E006C00B7
:101DB0007F0020000F009E00B8000B008A00260064
:101DC0003800240069002100500070001B00B200A0
:101DD0005F006200BC003800C4006300290092006C
:101DE0009D009000C0002600B000610093001C0020
:101DF0006C009B006B003A001100B9000E008A00D5
:101E0000AB005500A100A1009E002000640043002B
:101E10002000C10025005D00BA007D001200000016
:101E20000400830012006D003D0076000300AC004A
:101E30004300170087004200AA001E0016003E0063
:101E4000B20079002C00C60071009400B6001100A9
:101E50005500C700BB007F006C009400C600250041
:101E6000BB00A700A1000F007B00BC00970068002A
:101E700033002A002000720015008B0060008200F1
:101E80005000560063005B0034003800B500350098
:101E9000A10091006A004F00990092000A006A00B8
:101EA00037007500BB00BB00B800C10057005400EC
:101EB00022002D0013007300AE0045009A00990027
:101EC0000400A3007800AA006C007800B8004B0062
:101ED0005700610092004200890024003500AB00E9
:101EE0006700560086004C0059009B004F004000E0
:101EF00064008900B100B4003500660055001F0081
:101F0000BB00AB00B700B3002200280027005B0035
:101F10000500A5007600C1005300510058004B0099
:101F20007E001400700065005D003600A6006000B1
:101F3000380027002C0004005B0048008100A4004A
:101F4000BF00BC001B002C0001004100A800BB002A
:101F5000BC006D0067009E002A0058003D00A700ED
:101F600027006C0059005D004A0003008E007900D4
:101F7000160085003300600099009A006F00210070
:101F80005B007D003F004E00BB00AC009500A00050
:101F90000A0080003A003E005300C30042004F0098
:101FA0005C00BF007800410084004400B700AE0030
:101FB00027002E004B0090006C004D0016002400FE
:101FC0005D008800B100040007005F008F00590029
:101FD000B8003A000400B70059006600B700960048
:101FE000200093006C001A00B40027001700B50011
:101FF0004D00230049001B0034005C0011002A0042
:102000006900180067007B00500073004B009700C8
:102010007700C20018000A00A5002A003200C400A0
:1020200089005C002600C4009C004900B400B10097
:102030000C000B00490020006A001000160014007C
:10204000A50024003E00900035002F0024000E0063
:10205000A400400055001400260000004F008A0034
:1020600002000000A6009B0007003800800042002C
:102070002A008000A0001500C600C60087002C00C2
:102080001C00380091009F00C00039005D002C004A
:10209000AB002C0006004D00300063003100C5008D
:1020A0008E004E00C7006F006C001B0070003F00E8
:1020B0005B00B600650049004E008B000C00470035
:1020C000A70014005E003B00A7002C004A0063003C
:1020D0007E00910059002E009800C7006A00400061
:1020E000BF00BB008A0025003200A20095004C0012
:1020F000BA000B007D002300720045005D009600D1
:10210000A90066008F0082005B004000B1008300E0
:10211000730026005D00B40089007300AF009500D5
:10212000590009001B0080002D00B6001900610055
:10213000580067008200AC006B00AE00AF001B00CF
:1021400095007B00AF0028004A007100AD00B3008D
:10215000A200140034008B00C50004007E00920031
:102160007900680003009300750095005600180080
:102170004700BA00570080003000BB001F009200EB
:1021800089008E009700420038007A00C000BE002F
:10219000C300340044009F009300A4001E002100EF
:1021A0003B002D0032003D006E0053003B00230039
:1021B0007E00140017008900B300A600C3002900A8
:1021C00046004A0067004F00C400AF009800BF00FF
:1021D00041007300780054001A0024006400660077
:1021E00019003E0027002600600080001D00150039
:1021F000A800230035002A008A008A00B3008B0063
:102200001C00400079007E003F00650076007100F0
:102210009200320023008D005900070081007B00EE
:102220002300230064001F009E00BA0041009400B8
:1022300019004D0093004400BB0033003A00A00099
:10224000C0006C00B4003D0032003E008600AC00CF
:1022500081008F007F009D00090008004F00A5004D
:10226000210047001D00BF00C3006000B7004C0004
:102270002F003B00900029000A0012004B007C0058
:102280003C002B006D008C00B700B1000F00530024
:1022900014006D00AD0098004D006C004E00BE00B3
:1022A00059008F006200390084002800BC00B7008C
:1022B00064007500A300AE00710047002D00880087
:1022C0003A009D001100BC004A00620091003400F9
:1022D00092007A0012008900070083001900310083
:1022E000B7002A002900A2007100980027006E00A4
:1022F000B0003500AE004E000A000C009700C80088
:102300008200AC0042003400C1001E004400B8004E
:102310009A00C200AF007A007E001C00BE0064007C
:102320000C0012004B002E00590063004A00070009
:10233000AC005C0025009A002D00A5008F0007006E
:10234000870034006D009400BC00720064004700F8
:102350000700B70021006700B40072000100B6005A
:10236000C500AC003F001B002E006500BE007400DD
:10237000760070003B000400B10009008C00A00052
:10238000320013002F006700A30021008900030022
:10239000C200B40023004E008A0024004400230041
:1023A0004C001F009B001900B10071004400B100F7
:1023B0009E00250027001100AF00A5001E0084002C
:1023C000AB0080003C0082000F001A001A00A3003E
:1023D000720086006C002500BD00B400A600560007
:1023E0006B00AE00A7009600600027008F0013006E
:1023F00097001E001100AF002900C6004C006B00C2
:1024000079004B00C80028004A004100C5001B00AD
:1024100056001F0025009D00860059001C003F004B
:1024200044001F00AC006700280080001500A000D9
:102430004A0064007C004000B9000D0065009D006A
:102440001A000B00AF002000530044002E00A5002E
:102450009B00690056001000C6002700AD00BA00BE
:1024600036003D007F00BC003B00B0005800190062
:10247000240066009C002D0028003E005F0029001B
:1024800097007F00B2006400C40063007F00290051
:1024900049001500B100B70015003B004C00A10039
:1024A0004600AC003400660021006A004F00700056
:1024B0002C008300AE0061003E0096001C00170057
:1024C0003A002D00360025000900A200AD000C00E6
:1024D000790068006E00120044006700B600C70073
:1024E00035007F001C007A002B00020077002A00D4
:1024F0002A007C006200AC00730002001F0038005C
:1025000030002D0087001A006F000C005800830077
:102510005F00750091005400120062007500C80051
:102520003B007B0014008700020059005700640044
:102530005500420087001A005F0071000500B500D9
:102540007B00340006002C0079008B0087008C0093
:102550006D00420011007E00A600590038009D0069
:102560003200BE002F000E002A007F002300510021
:102570008F00BC0099000400690062000E00920008
:102580000B0016007D003B005400B4009A004B0085
:10259000C300C0007F005A001C004F00A10097003C
:1025A00074001D000500180064002100BE004600F4
:1025B0006D00A2005600330045008A006900B90092
:1025C000A900A8001B0029003300740093005100EB
:1025D0006F00C4009100740092000B009B00AA00E1
:1025E0003E009F003C001A009B003400840038002D
:1025F000010060008E0067008A008E005300160004
:102600009B00890065008E005D0050005F00AB00FC
:102610007B000E000F0085004700A4007B005C00DB
:1026200017009C0024005200B100B9002100610095
:102630008E009900BC0051004900AB007E004B00A9
:102640003A001C0014007900710083008D004A00DC
:1026500014001A008D004100B200B20084004A004C
:102660001F00220027001C00B200AC000B00AD00D0
:10267000BA008900B00073003B001300AD004200B7
:102680004D00AF007400780011005900BF00C60073
:102690007000370001002500330010000700BF0064
:1026A0003A00370029007A00B5005F00A8008B00CF
:1026B00061005B006B0077005E002A008900070064
:1026C0008F009E00BC004D008B006A008500310029
:1026D0001E00A7008A00A200710002009800BF003F
:1026E000BB007B004900C1001500C100A60090009E
:1026F000A6006B004500C700040078006C00BE0017
:102700005B000C00770080001500530007002400D8
:1027100075005000AC008E00C100C6007E007B003A
:102720000700BD002D0046009F001500230031006A
:10273000C500710005003C0013005C008700140018
:102740005100C5002900C8002D003F0027003700B8
:1027500020009300B8004F007E0004004300870073
:10276000330023008200B0004D007100BB00BA00AE
:10277000710062008B00050005008A002100B8008E
:10278000C6001F00A4000A00C10021000D00560071
:10279000AB00A50079004000C200B00052003C0030
:1027A00098006E00B200890044007200BE00BF00B5
:1027B0009E00490098007C002300A800C400460049
:1027C00023004B00AD004E00420082005A000B0077
:1027D0001A00B0000900C0004A00C5002C001F000C
:1027E0003E005100600099002C002200B400C60099
:1027F0005C006C0001005F0009003300B20096002D
:102800006C007A0007006F0061001800B900130027
:1028100018004900890090004A006B00C200500077
:1028200040004F00430025009600150043001B00A8
:10283000C5006E006F0004001F00C50068000100A5
:10284000300016005A0009007C008800C600A6006F
:102850006100B7004100BE00790059008700710097
:10286000960044008D00BC007D00A1008500C800DA
:1028700046002300AA0077002C009C004C00540066
:1028800011003D00650046000B001800C300170052
:10289000720052000A00000095003D003A009600C8
:1028A0001F0036002500C40098005D0017007B0063
:1028B0002400480092006E00C00016009300A5009E
:1028C0005600AF00C400B90024000200C60030006A
:1028D0002D00BA0050002B007B00630068005D00F3
:1028E0009000630093002C001200BD00990064006A
:1028F0007B0045003E001B0031002800A00057006F
:102900002B008800BF0020006A0075000500C00091
:10291000BC009D002000AA0015000300C100920029
:10292000230060007B007C008800B6006700820006
:1029300059006B0016008D000100BE006F000300FF
:10294000C700A200BB005D008C00A300C4005D00B6
:10295000A2006400690024002D0087000900C70060
:10296000B000B7005700C40080007B001A00690067
:102970000A006E00C10051003F00C300AA0097008A
:10298000B60079008D0020003F004A006400670017
:102990005A00A800C30053000A00C1000600270027
:1029A0009D009A002B0022002C0025002F000C0017
:1029B0004D0031000400650038007B0045004100F7
:1029C000910077004A007B002C0089001700260048
:1029D000240096004700960099001100070095001A
:1029E0004D001C00300001009300450036008100BE
:1029F00004008E00AD002200170001008100B1002C
:102A0000940069005E0012003600AB0027002A0027
:102A1000A3005400B4003E007E00C4000400670020
:102A2000AE005700200032007B0072006C001E00D8
:102A3000100033003E0069001E00AE0014000600C6
:102A4000B5004B009E00AC0059009600C7007D0009
:102A5000A50036001E003A0001003500A000AB00C2
:102A6000B5002900000088004D0010002200B600CB
:102A700048004C007B008700A6009800B800A50025
:102A800090004800690020009C00B800670000002A
:102A90003100B300BF008E004D004500C60072003B
:102AA000A80036001200BE007D00A1001B009000AF
:102AB0001F009F003A0092007C00B2002100A60097
:102AC0003D00A800290021005A0087008B004B0020
:102AD0008D001F006F008E003F003F001500B90001
:102AE0006E00850018009E000E004D003A00B100F7
:102AF00051005B0036008C001A0022009E000D0081
:102B000048005F0084000A008A00C2003C003A00CE
:102B100059001300660032005300BB0060008B00B8
:102B2000740074001A00AA0066001E003B00130027
:102B3000830071009A0081000E0040006900C4000B
:102B4000290017001900C100AE007100AE00860018
:102B50003D0001009C004F005A0099003700100012
:102B6000030068005E008C00AA002B008000790042
:102B70000500610056006C002D009000C00075003B
:102B80008D00A900170000004E00AC00B100C80085
:102B900088004E007600100034000A0069009F0093
:102BA0006D001A00B500C700060049008E0008003D
:102BB0002800A00016004400600055006F0030009F
:102BC0004B00B5006E003100A20008007A00220020
:102BD0007300BD006F003300970090001600BF0027
:102BE0005800450060002F00200017008600790083
:102BF00068004A001E00BD00A0003F007600AD0046
:102C00003B00A70084008C009400C70020007500E2
:102C10007B0077007A00AD00C30062008C002900C1
:102C200078002D007200C6004F008A007A00B000C4
:102C3000B400310018003A003100B0002500A200B5
:102C40001700440004005500B70038006B00100066
:102C5000C3006A000A008F0003009400AF007D00EB
:102C600063001F00C8009500C8000F004F00C3009C
:102C70009A0083000100240000004E004500BA00C5
:102C80001A00490071004B001B002C006100C100BC
:102C90005F0012006B008B001800740004009F009E
:102CA00023007E009E00BF004900B8009B00540036
:102CB0003A001200160066004300A700AE005C0058
:102CC0002A000F006C0065003B00AA008E000A007D
:102CD0006200B40001007C007300AF004D008F0063
:102CE0003D00630052000800B5007A003700310053
:102CF00014003000110007007100B70051002C00D3
:102D00009B00AB0071008F005500BA008C006E0074
:102D1000C50093009E00350097001B000500BC0015
:102D20001B00810081005400280035004B00C100C9
:102D300064000D00BD007300200002006100580017
:102D4000B8003A007900B6007600B9009C00340063
:102D500070007F0075004E0028008A00B700470011
:102D60006A004A007F005900AE008D0040006100FB
:102D70004B008800C0009E008100420057009E006A
:102D80002D002C00C000BF00000008001F003E0006
:102D90004C00AA00490090005C0065009D005E00A8
:102DA000BB000D00A30062008000610027003A0014
:102DB00019005400B3005B0088007E0057005600E5
:102DC0000000840035007D00BC001900AD004A0001
:102DD0002400A7006200BC002C003800390022004B
:102DE00046004C000A00A6004800B300C5003100B0
:102DF000B200B30092002400BF00700077000D0005
:102E00000900AD00650097009100AD0094007A00C4
:102E100043003800880087003A005B00AB00A10047
:102E20005600220057009900C000AE0059009200E1
:102E30003600AE00A60086003D0046008E009700DA
:102E4000A1003C00C8001800B500750064007B00BC
:102E5000A1001400BE007C0062002A009D00310029
:102E60004C0066006C0066004E001D0032006D00D4
:102E700069004B00BA006A007E000A006D00100075
:102E80002F008B0057005000C500470097005700E7
:102E900018004F00890042009A0049002D009B0055
:102EA000070091001C003E00AA001F00AC000C00AF
:102EB00060007E000B003B00C4004D008700110045
:102EC0000500B900AA003E008200BC00B3007D00EE
:102ED000510069007E00460030006A00260029008B
:102EE000A30043005E003D006100C8007A00C700F7
:102EF0007500100084006D0054009C0062003B00CF
:102F000047001B006E0069008200AC001700220021
:102F100052000A00AD003500010002006600990071
:102F20008A000A000D008F00770073008800770088
:102F3000AF0053005800A0001F00510035008C0066
:102F4000C70087003D008500A2003F0073007400A9
:102F50005800930099006D004300A100A5002400D3
:102F60003A00AD009B00760078005E000800780013
:102F7000C00066005E006D0059001B001300940045
:102F80004D001700150049000D0030002100990088
:102F9000580077001C008A006C008F008D007E00B6
:102FA0009E00BA00A8000900C000BE0078001F0003
:102FB0000A005F002E002D0091007700B70040004E
:102FC000610029004E00210060003F0086002100C2
:102FD000B600A2000A0011000D0018005E009A0061
:102FE000BE008000A7002000330003000A00B900E3
:102FF000C1007F0063003700580017006400A9007B
:10300000B6000200AE007F001E00B50093008100F4
:10301000B800A900C00029005A00370047009300FB
:1030200028007D007C00B70021005B00B500050092
:10303000130068004000130022008D006800280083
:103040009A008F007900360039001600A300720044
:103050002A0043008600480037000B00510015008D
:1030600061008D006600460058008900740005006C
:103070005700B9002E0007007500180052008500A7
:10308000B40098000E0071002D0095002A009400F5
:103090000F0027003F00C20035000E006D00BC008D
:1030A0004800BB0008005100C100B1003F00010012
:1030B00076009C00030053005700AD0061000D0036
:1030C0008200A200C600BB004C00400010005E0061
:1030D0004A005A00430038002C0084005A0099002E
:1030E00000007800270003008300C5001F00600077
:1030F00092004300A900700070001800C000830017
:10310000BD0094006200A3002A00130057005F0076
:103110007C005C00770080000A00B0009B00780013
:103120001E001F00300011007900670007005100E9
:103130007C00C5001F009000B500A4009F00200087
:10314000450087000A0078004500090012000400CD
:10315000A9008E0033002F0096006500B400B9006E
:1031600024004800A2006300B400AF0090003C00BF
:1031700087004C00A5001D0067007100A700A0009B
:103180000400B600530081005900AE009A00A00070
:103190009800C600A10044004E00070017007D0003
:1031A00000000D00A9000900A6001000A5000A00FB
:1031B000A400480008000B006F009300A00031003D
:1031C0008B00C4009C002F004400C100C100BC0063
:1031D0007300300016001B001D00830067001A00FA
:1031E0001F0066008D0076008800B4009A00080079
:1031F0007C00C8003D007200250049002C007E00C4
:103200008A0081007A009000A7005B000D00130087
:10321000280087004C0098003F0042001400410045
:10322000A100C1000200AD00B200A800B10027005B
:103230002E0076006200B4009E003C005F006A0031
:10324000C000B1008E003E00C000260039004600DC
:103250000A0084001600450033008A007D006E00DD
:103260007B0010009C008300C50009003B00A1000A
:1032700050008700A90012009700000098000E007F
:103280000000B1003C003600930091008C003D002E
:103290002900A20030000300560015009B007B00AF
:1032A000C1007F00470081006F006800C4008300F8
:1032B0006100BF00AC0035006E008D0024009C0052
:1032C000B8000A00B0009D00430041002300C10087
:1032D00030000400C3009F004800840004009C00EC
:1032E0008C008300590069004000AC009D000F0075
:1032F0004A004F0067005F00A9004A008200860074
:103300005500060036000100C80008006400AE0049
:103310005A003C00B1009300960021008F00A500E8
:10332000490044000B00C000090057004600990006
:1033300081001F00C50094003F008500B5002F00EC
:10334000AA0082009600140015006D003300C20030
:103350007D00BC00B100AA0039001F00C800BE00FB
:103360000A0029006D006B0085003B002600BD00AF
:103370004C007C00B30002008F00C1006B004E00C7
:103380000400C7009F001C0007003B00AC00920037
:10339000220059002D001300AB00AB00B800A700BD
:1033A0005800B7008B00AC00170039008B003B00C1
:1033B000400050001C003B00C1004900050078009F
:1033C000680041004600290049005E0077000700C0
:1033D00019006B006E00580043002D0042007E0073
:1033E000A70043006B0066006A00B3000400C3003E
:1033F0009400430007005E00050089007D009100F5
:1034000044001F007E0048008900B60079003900A2
:103410000F001A0099009800A100BF00BE00C5006F
:10342000140076005B00C8000700490030007300FC
:1034300072005A0028005A00C10061005A001D00A5
:103440002A0030002800750096002800AB003E00DE
:103450002C004B002100B80042005B004200C60077
:103460009000060030009F00BA0081003000260066
:103470003D00010072001100BE0004006A008600D9
:103480004B0063000600B4004A008A0016005E008C
:103490004B0087004D00A6001E00A000A9002400DC
:1034A00093002400C3004F006A00540099004B00B1
:1034B000060064005E002F003400320080007E00B1
:1034C00091000C00430029004F004C0011006700E0
:1034D000B700770054002E006F00B3009B007B0004
:1034E000A200A8001200290043000B0047002100A1
:1034F000590077006A0088002700B0005B00900048
:103500008A004A0097005D00B4000D002D008E0077
:10351000A400C1007600BE00C1002E002500990065
:103520002C00C80046008400A8008A005F00060046
:103530009F0034009D0025002F003E0065003000F4
:103540004200C20030006800B7002100BA009F00AE
:103550007F009B006E009600AB001500C8007C0049
:10356000A200A800BB00110097001A004600BA0094
:10357000BF007F0066006500BD008B001200AE003A
:1035800039008E000F002F008800B4004100BE00FB
:1035900072003D0040004000A4006C00C4007A00AE
:1035A00003009A003800AD009400BE0012004100F4
:1035B0005300010059004200B200B50055009900C7
:1035C000A2007A00BE005A005A0021005F00A90044
:1035D0004A0003002F00460067002B009300820082
:1035E000AB0065002700390085004F0083000E0006
:1035F0002700050077003E00AA005A0073007400FF
:103600008C00BA009E00BD0077007A002F007C007D
:103610004D007300C7006A0097006B00990010000E
:10362000C600AC00AD007F005B005800AA006F0030
:103630000000550040001F007B0086004B004F003B
:1036400050001A00BE006500740068004400AB0022
:103650007600B7008300610047008E0044009E00A2
:103660007900B400970018001900A40042007D0002
:103670000700380043005100170070007100AB00D4
:10368000BF00B9001400A500C80005004200780082
:103690005E0019007A009C00400074007D00080064
:1036A0006C00C4009300C7009800BC0068006B0069
:1036B0001D009A008B008C004900AE009000BC00F9
:1036C000C1002B0037007B005B00AD007E005A007C
:1036D0002E0072006E00000089008E0077008000CE
:1036E00029007700C70058007400BC009E00190034
:1036F0009C004800A3006C005B00C800350024005B
:103700007A001A00A3006A0097006B005B004E006D
:103710007100A300740086007A005B000C00AA0010
:103720007A005C000E007300AE008800390075005E
:10373000C000950055006200740018005500750027
:103740008A00070059002D008D003D00BD00B0002B
:103750009C00760014003B003C009C009800470051
:1037600041007300A1006F000300940007007F0078
:1037700037009A007D00C70007001F004100740059
:1037800082005B0021003D0034000C000200AD000F
:10379000A900C100B50048001E00600023004C00D5
:1037A0006E0011005D0058006B005300B8005D0012
:1037B000C8006F00A4006B0023008A00B400120050
:1037C00058002C00570047005A0060005300980032
:1037D0002D00120007003B006F00C30085006B0046
:1037E00013004D0077003F00C50094007400900066
:1037F000B0005B00A100660069000800BC00630027
:103800007E003E00BE00AC005000BB00A2005B008A
:1038100007005400C2006600060061005900C400A1
:103820003C0018000F002400060058007D006900CD
:103830004A00C4008F004A007A002C000A00890068
:103840005600BC00A4004E003B006E007F003D000F
:10385000C6007D0065004B002800AF0077003A00ED
:10386000270012002B0008005C00C0004C0056002E
:103870005400B200C3005100180008009700BF00B8
:1038800073007600520050006200110028001500FD
:103890004E0073009C003000A1009A00C1006E0031
:1038A00036004B006E00AE0015005F0019006A0084
:1038B00086002200590001009F00B9003D0016005B
:1038C0005D00AF00710041004D0014008A0022002D
:1038D0000F0041003300570078006B0041003000BA
:1038E00096002F000D007300BA00AE00B9003E0034
:1038F000320009002700540065001A00B900560084
:1039000004008F0043007F005F00A800100031001A
:1039100073002A009A00310065002400340056002C
:103920004A001A0006001300C40098008A009F0095
:103930000000B800A000BF002600670077007C00F0
:10394000A800250028007F0046003B002D007300E2
:10395000BF009B005C00B3006B006600270068009E
:103960005700A1000A0035004E00640026005300F5
:103970002A0056000800A800B10092002100B700FC
:10398000C8007A00BE00930087001A00A300A200BE
:10399000A7009600AD007C00950003004D005F007D
:1039A000BF0022001800BE004F00120005001B00DF
:1039B000BB005300190039008E001B004000C200FC
:1039C00039006800920035003400990044001B0063
:1039D0006C001600AA007A004100B600C1008C00FD
:1039E00053004E006F00BA004500420085003F00C2
:1039F0008100C60077005600B800A3007900B60029
:103A00000300880006005D00C4003F002800250078
:103A1000B60001006E0004006F001A00AF000E0037
:103A2000C5009D000200C8007F0090004B00A70069
:103A30007100510036005E00A3006A00530044008C
:103A40001D0008008B008300A1007C007C000E009C
:103A50004800B2007100C70099003900BA00B700F1
:103A60004100C6005C00B500A10051003D0002000D
:103A70004E00250051005B00A000A000BC004900E2
:103A80001900A700A900010098003000800048003C
:103A9000BE0043009C007E005D009B00990010006A
:103AA000A4009C003B00490058004C005C008E00C4
:103AB00063000F006C006C005300AB0037006A001D
:103AC0001E0055000D009C000D00640026000B0038
:103AD00045002B004F00C00024008B00B000A30065
:103AE00043001F002000040034002E008200180054
:103AF0009E00060074008F002C007F004400A6008A
:103B0000AE00600024001000B7004900C6008E001F
:103B100096007600C2000A007600A4007B00AD008B
:103B20004F004E0018007500060042006B000900AF
:103B30009F0029009A000500BF00A100AD0097007A
:103B40007800A5004B00110084006C008000340058
:103B5000C40091005B00B300510091001E005B00A7
:103B60001100B8006E007C00890098007E0088007B
:103B70008400C3008A005700470099005C003500AC
:103B80002E0069003300B7009C006300750023001D
:103B90005B001300160059005C0075005F003600E2
:103BA00012005A001B009700250042003B008300D2
:103BB0001100BF003900BC00470076006E0098007D
:103BC0003400B2008600720096004B0011004600DF
:103BD0002B006000690089008E004F0062006100C8
:103BE0008F00A90001006E007B0071009600260086
:103BF0004A00C5009F005800B7001B005D001C0074
:103C000099005400B0001C002F000A003E0028005C
:103C1000A70092007E005D001A00AC00B3008B008C
:103C2000A5002C00660064001E0082000000AB00AE
:103C30005A001500B100A2001200B7003C009B0022
:103C40005300A30054008100B9001A00220069004B
:103C50006A00100091009000B40045002B000300A2
:103C6000B800BB005100120007007700C3009B00A2
:103C70009D0074006200C200090029000600600077
:103C800066000500340009008600B50061008B0065
:103C90001000AA00610035002700C300AF00C70074
:103CA00004006700A200A90082000800500057002D
:103CB0005B00AA00B80087000E00BF00660073001A
:103CC000AD002E008800400045005800BE005C009A
:103CD000B1008100A800B9004100780019008600F9
:103CE000A50095001F001F005B004D00A700BC0051
:103CF00028008700A9009C006200B00043009B00E0
:103D0000C0009C002D004100BF00580003001300BC
:103D1000B900350014005F008D00950003006E00AF
:103D20006E007B002E005400BE00950088009000BD
:103D30003100BB002D000800930051001200470025
:103D4000AB003F00B600C8007300530009004300F9
:103D500098009A00C50088009F00910062007300DF
:103D600011003D001E000000A500BE0030009500BF
:103D70005F009B0054002100490080000E00C70036
:103D800025007800C7001E0055006E002C00410081
:103D9000720046005F0032002600660046002200E6
:103DA000A700370050003500A0006B0079005D00CF
:103DB000460070001600B30001005C006100AF0017
:103DC000250090001E0084009D008E0077009E005C
:103DD00015006E00BC00B0007400A2001D00380089
:103DE000AE001C009B0065008A009B0096009600B8
:103DF000BC00AE003D00B5004D00500048007D0005
:103E00008D00B6004500350003007400C400A90011
:103E10009200C30008002D008F000B004B003600FD
:103E20009900A3005700C800550081005200C80047
:103E3000B8005E004E00A3004400A10075004600DB
:103E40001F007A00BC009D00770059001E000A0088
:103E500050007000AB00B900650051004500C30080
:103E6000A1003F00B40001000700AC0036000300D1
:103E70005F004F000F00340097008100B5008600FE
:103E80006B0073006C00AF000C0053007F006700F4
:103E90007F005B0098006E00B20090002A008E0048
:103EA0009B00020000008E007D00A700A00019000A
:103EB0006300B10054009E0083008300AC007600D4
:103EC000630087002E003C0016003500AE009D0008
:103ED0007700C1005A008A00B5007800B6003200B1
:103EE00011004900BA003D00490091004400110052
:103EF0004B004900A300C8001D003700AA007C0049
:103F00002B00070047008B005C0061000C00A5003F
:103F1000020083000600B2008F003E004400A900AA
:103F200096001F002D00C30076004D0008001F0002
:103F30002800660002004A00500089002100980015
:103F4000680004007C008900C200370043001B00A9
:103F500021003900BB007C006D00BB0018002C0064
:103F600043003E009700990085005000B70008000C
:103F70006B002F0016004E0096009300B3005D000A
:103F80009C002C000800B5006E007C007B008500C2
:103F90000500B400B20048009B002300A7006A009F
:103FA0000D0000009700A90013000600AA00B3004E
:103FB0007B00780063006A006A001200C100800084
:103FC000C7004A000600B40036001D008200A500AC
:103FD00012008C00C50072009F0066009F00600008
:103FE0008E0087009B002E005500440065004A00AB
:103FF0003100C300C5002A002C0000002400880006
:104000009100630048002B002F002C001700630074
:104010005C0010008F0083001B00110032001F00A5
:104020008600B7008C00BE004B0005005A007B00E4
:10403000A200AE008E00A8005800700022005B00B5
:104040002800A7000C004D008000C4005A000000AA
:10405000A5009600A700C1005300AD002900210073
:10406000B1006A00A400C400890076000D0022009F
:1040700045000C000E0096009C00620053003900C1
:104080001C00A5007000AD00AA002100C2002B009A
:10409000630067006200AE004600540075007500C2
:1040A000BC0078009500420029001F0070001D0030
:1040B00056006A00BC0039000A003F002800C0001A
:1040C000B500180086001A002F004D00A6004C0015
:1040D00042006E001E00870095000E001B00B40019
:1040E00001004D004700B400B3007E000C0000004A
:1040F0002F006200540094001700230091009400E8
:1041000060007500560071004100AD0002003300F0
:10411000AC001300820086006600BA0058001D0043
:10412000A2004F00C3007800A1007E005E009B004B
:1041300069003E0008005000AE000100C1004E00C2
:1041400053004600490070008600690047001100D6
:1041500013008D001E00130079008F00B9009D0030
:104160008F003B002D003D00100061006800B5008D
:104170008C008B007C005F004C005A00A3000E00F6
:10418000A9008F0030006300C2001C0074007000A2
:1041900094001500210027001500C400A900960016
:1041A00084000B001100AB00B9003100AF004100EA
:1041B0008B005900460028009A00AA00B3005D0059
:1041C0006400270029008300060008002800A700DB
:1041D0000D003D006C0020003200AF004000540094
:1041E0002000A200A800050091008400B600550040
:1041F000150087009200970038003B00A500900052
:104200009100790093004A008D00500073006C000B
:10421000B300580060001800350046003F009200CF
:104220004C00B40023008100AC002D00C4000F003E
:104230000D00870083002F002F006E00B70058008C
:104240005900A9008900AE00C6000700BA009C0012
:104250008D00C30066002B006F0010008000C200BC
:104260000700B7000D005600A6001D0028007C00C6
:104270003B00B7004600A000C8001D005700920098
:104280001C00200027004F00B5006A0042001A0001
:104290006A005C006D0072006B004F00BC00BE0045
:1042A00056008800AF000D00390044007000A900DE
:1042B00023002300430063001B0038005800100057
:1042C000C500C000A2001F007D001E008A007D0006
:1042D000C8009D009B002A00A00053008800000039
:1042E0005C0027003E003900B3005C00B20005000E
:1042F00077004B0067004E002F00BB00A9006D0047
:104300008500A40046003F004D00B8008F009700D4
:104310004600C5009E002100C000BC002F00A30085
:1043200081008E00480093006300AB00A900BC0030
:104330001B008E001F006500C50099004800750035
:104340005C0081001200C80073006C00030067006D
:104350004C004100680062009C005D0092007E00FD
:10436000130088005A00C500BB007A00BE0092000E
:10437000B0006C00A900A7001D00170087002000F6
:104380003800600067003D00770057000C004600D1
:104390007200490027001800140031002F001F0090
:1043A0005F009A00350088002B0067006B001B003F
:1043B0006B00630063003E0083001D001E00900040
:1043C0007D007E006C003F00C600A00011002200AE
:1043D000B00095005B00C600A700370077006800BA
:1043E0001000B100AD00450053001100A9003600D7
:1043F0005B004C004F00AA0058007F001700170018
:104400006C0073005000100045005B003300450055
:10441000B8005B0029000300030028006700440087
:10442000A3001D008D00680090007200B8009B0082
:104430006400320021004D007C0020008B008F00C2
:10444000970006008B00770057000A006100930078
:10445000B2007C009B001100970057007000940090
:104460001700B1005F008A004C00B70076008D0095
:104470002000490096009A003B00BD00AC004300BC
:104480006100C1003E00AA000C00B0007B00860065
:1044900079007A009D00050037000F0017003200F8
:1044A0000D007E004200410092009E0083007B00D0
:1044B000730027006000A4009E00C60057003B0068
:1044C00078006B006C009E001300C2003F00B50036
:1044D000530007002A008800AF00C7005500B50050
:1044E0003C0020008500A9003500750083006D00A8
:1044F0004D005A00C40040004E00C3000A004800AE
:1045000079001900C400410076000C0009009100F8
:10451000470088004600A400BE008C006E002C00FE
:104520001800640038008B00660057000700C600C2
:10453000AE000D0036000C0078003B0034009800FF
:1045400066003E007B004500740082002400AA0043
:10455000BC007900B6002300C20067005B002200A7
:104560004400A0003700210017001A000700B40023
:10457000B9001F0085009D00BC001B004900200001
:10458000C400B8008C008F003500B700B3005B009A
:1045900048000300B000610073005200B6001F0025
:1045A00051006C0024008800A5002F0098008C00AA
:1045B000C7001100AE0025000600410077009800FA
:1045C0002A00C600B4003300C20095002600300067
:1045D000510050007C005D004D0012006500170086
:1045E00045004400950062005500010025003E0092
:1045F00017005700AE00BA0075005900C5002D0025
:1046000011009C002A00920009009C00C5003B009C
:104610004B005900A7008F002E00C8008D004F00EE
:10462000A20007002200B600AF005C000F000900E6
:104630000000C30011008A005B0094004B007C0066
:10464000C7009800BC00BB00BF004B00C500310094
:1046500036000C006800BB00B6003B00A100AA00B9
:1046600000009C00C1001C00230038001300A200C1
:10467000AB00970023000D006B00380071006A004A
:10468000C50079009E007300300073008E00220088
:1046900079004600150083005D00A400C400A0005E
:1046A0009400A100BB005A005500B0009000A50086
:1046B0006700C10034007A00AB00970009000300D6
:1046C0008200340097004A00730025007C007600C9
:1046D0006A00870042006000AE001E002500030053
:1046E0005B0088003600C000AF0052003900BB00FC
:1046F000570012008900B30060007D00350076008D
:104700002800A7002700C30091008600B6006600BD
:10471000980072002C00B9004500800039009B0011
:10472000150013006E00AD0099009200BB0045001B
:104730007B009C002D005A00800008005E003100C4
:1047400057008800A50003006C00380091004E005F
:104750007B00A900290067000F003900BD0092000E
:1047600045000F007A0036006700540088009E0064
:104770008B00B900BB0094007B00B2009C004F008E
:104780009B00490088001800B600BE00C2002E0041
:10479000050059000E008E005300A6008D00190080
:1047A0003F0091008C0031007800990050005500C6
:1047B000B2007C0039002E009A009C001300C60055
:1047C000210088002200AA00B3003D0053004F00E2
:1047D00068008200BA00BA00A1008E00B200740026
:1047E000A70063004300B7007500A300A000AF005E
:1047F00005002C0006004B0073000B003400540031
:104800002800770005008F00820098008B0096003A
:104810002300AA001D007A009B001F0092003100B7
:104820003300C300630028002500370051003E001C
:104830005D002F00380064007F009000AC006C0029
:1048400010004C004000360040004D003800900041
:104850008E008D0079001800B700050036008E002C
:104860007700C7004B002500170075007B0039005A
:104870002C005B00660007007B006C005000850088
:104880006E005D006500C5003800020061000A008E
:1048900051000F005000A000BD00C40053000300F1
:1048A00048007A007200A0003500C0008400AE000D
:1048B000AD00AD006D0036002C00C7001E00790071
:1048C000C10065003A003F00BC0020005A0007000C
:1048D0001D0012000000C3008A003F00B7008E00D8
:1048E00092000E000A00000073003600770072008C
:1048F0007D007E00620064004900350041007900BF
:104900003F004900A7007F009200160020006400CD
:10491000520007003500B500030012003F00A00060
:104920006100BA001400820013001A004C00480015
:1049300030002400B2000400BD004000B700550064
:104940001900240075004C0041009A0065007700B2
:104950003A0059003E00B400BB00170015008F005C
:10496000C200A30040007C00C400AC009900970086
:10497000140021006A000D0005009100970032002C
:104980006F002C004200AC004700B2001900070085
:1049900057000B00860015006700A9006500540051
:1049A00013009200890099005800640043007A00C7
:1049B00020005D008000AA009200B3007200990000
:1049C00043000C002D005B007F00A8007700020070
:1049D0001700A9002A009C00C2006400810040006A
:1049E000540094006C00B7009F00A8006D004D00BB
:1049F000C8001200940066003E00AA00A900110041
:104A00009D00550093004E000300950029001800FA
:104A10002700C500130008006B00020061003B0086
:104A2000090038006200A200640044009300BC004A
:104A300092005100800027000A004F00C800AB0020
:104A4000AB003F008F00C40061005C0033006000D9
:104A50001300AF00B900020078000A00A50085002D
:104A60009100B200720028000B003300C5007100F5
:104A70001800AF007E000D004A000E003300160043
:104A80000400B8004000580012006F00A00083002E
:104A9000B30022006500A7007D00BE003C0034008A
:104AA0009B0049001900A000120058003C001300B0
:104AB0006B00310027001F009D0009008300520099
:104AC0005C007D000E00BE000100400086008700F3
:104AD000250086001A0069001F00A5005800450047
:104AE0000E009C00AB004200360070006800A2007F
:104AF000AB005E003B006A00B2003C001D009F005E
:104B0000A8000E00A40085005E0092008D000C003D
:104B100031005A0040001D00AA005A006B008C00B2
:104B20001A00400099004A0050000100390054006A
:104B300080008C0022002400500068005A008D0084
:104B40005B001B00A3009B00A6006A0052009900B6
:104B5000AE009E000A008900580051009D006300CD
:104B600010005E0033007B004D00A1001A002300FE
:104B70000400440047001F0011000900290019002B
:104B80002700A8006C0046006400180039003500BA
:104B90005F0027006B0014009400AD00290058004E
:104BA0007600AF00090076002A00A00054008F00B4
:104BB0008800C600A9004900A6000200A5005B000D
:104BC00075006500BB00590009008B0077005D008F
:104BD0000F00480049004A009200A40084008E00A3
:104BE000C1005C002000B500BB006200440028004A
:104BF000BF005F00A90095007E002C0077007D00BB
:104C00008B007C002E001B000C0015005D00920044
:104C10003B0033006D004D005100C200AB00B400FA
:104C2000040044000E00070097001700BB00370087
:104C30008E00AB000A002400670029008600BD003A
:104C40002300B400C50058003A00C400A400BB0013
:104C50003D00C8003B000600B3008C004600140075
:104C60003F00A7005E006700B4007B001200C30095
:104C700060004800480069008A003300C8002F0027
:104C800041004100180038006E00780068004800BC
:104C9000B600C2003D0018004B0016006700B600C9
:104CA000A90065006000A2009A0087006E00B400B1
:104CB000460066001A0081004D003D005100A90029
:104CC000C5000000BF0085008D00C7002500A600BC
:104CD000680098006C00680026000E007F003F000E
:104CE0003A0017006F0040009F008400B0000500EC
:104CF000C500C000C5003C00C5001500720065007D
:104D00007900440005005D009D00BC0049006F0073
:104D1000100022004300C4008F0013009B00A60077
:104D2000BB0083005E005C006C0092006900B40070
:104D300087008300B8003D00B0000600C2005A00A2
:104D40003700BF0042007B00B300B40044004000C5
:104D5000230036003C00320059006400AA005700CE
:104D60007700440040007A007B0087008C005500EB
:104D7000390096003500460083002A00C4004B002D
:104D80007A007C002100BA00290008003F003C00A6
:104D9000C000320065000D00C400300083007100C7
:104DA0008E0076007B0017009C000B006F000C004B
:104DB000380075008F002000BC0069009D005E0077
:104DC000AB00530027002E000000370041001C00FC
:104DD0003100790038001600C7000C009B00150058
:104DE000430005001D003300AB001B0005008C00D4
:104DF00091008C003B00540054006A0051004800B0
:104E0000A5007100460042007F0034003200C60059
:104E10004400050042000D0032004C00880056009E
:104E200013006F00100042009900B500B4008F001D
:104E30003600BF0048009800C200630097001E00C3
:104E4000C2006F00C70001007C003F00A2005500B7
:104E50002600510088006600780044008B004E0058
:104E600028003000BB006F0068000D00A700B700ED
:104E70001F003C007F00A0005E005E00670057003E
:104E80003B000C00A200BB00620063006C006F00DE
:104E90004900AC008D0011000C00A500BA004300D1
:104EA0005C004C00670022002A00070037008000E9
:104EB0002B00030026001600BB002000390036003E
:104EC000550006009C00AB00B1007400B000B000BB
:104ED00000009400220043007D0053005200C100F6
:104EE0003E00640006004A001200BF0075007E000C
:104EF000B4006900500031005F000200610017003B
:104F00006C006D003B005300770014000800520055
:104F1000A200770018009F005F004D00BF007B00DB
:104F2000920047000700370051008700BA001C00BC
:104F30002A00610003009600360027004400C800E4
:104F40006100C6000D0035005A0037001A007E00CF
:104F500016002900C300C400AE00A3002A00BA0056
:104F60004200AD004E0005007300A2003D00B100FC
:104F70009F00A50016000B0079007700C0004A00D2
:104F80007A00BC001600C7004800C6000E0064008E
:104F9000A70076006500490013004C009700180038
:104FA00040002E003B0088000B007B0077000A00C9
:104FB000AC00790021008500B200A0003D001B007C
:104FC000BC001800A8001F004E00C200850053005E
:104FD0006800BA00A60045007A007C00B500AC006D
:104FE0005900A600440046005D001B005E0034002E
:104FF0002A002200B500BF0077001E001C008B00B5
:1050000006007A00C7004600810069006B0033008B
:105010002C008A0044004D00B7008100B600360025
:1050200016003D005700C8005400140061007D00C8
:1050300033000D005B004B00320087001900B70001
:105040000E0077007F000A004400A10016004A000D
:1050500082006400AE00AA0086004E009A00B800EC
:1050600037005B00A10086009600C300090099008C
:10507000C6000C003C003300730017008C001100C8
:10508000A4006A002B009600A10079009600790028
:105090001A002E006B000B006E0062005700B40077
:1050A00067004A000E003B003900B60046008E0043
:1050B00000001C003000BC003B00C40022000500C2
:1050C000810009005D00AC0058005D0074002800FC
:1050D0006500C600A70046004C002D007A008C0039
:1050E000C1003B002100A900C3009D006500C30072
:1050F0005A005F00560091003200590098000500E8
:1051000065000C006B00A900940077007800BE00D9
:105110003A000F007700C50009009000B300480076
:10512000570092004C002500A80031005400710087
:105130001C0067004300AD005200560055009B0064
:10514000BE007F00A9000E004000030082000C009A
:105150006D000800BC0036006C008B008F0043001F
:105160002C004C00400024000F007800AE00BF006F
:105170005B00B100A5007A00A50073000800640080
:105180001A001A002900B400A3004C005500330097
:10519000BC00770054004500BC00850046006C0050
:1051A00035001E00C0008E00B200B300580004009D
:1051B0003C0057000800230078002B003500AD00AC
:1051C0009A000B009B007F00100016005E00850017
:1051D00097009300AD0060005C00A300B700500092
:1051E0001B0029007D006C007900B40075002E00C2
:1051F0003C002F0071008E00C4005D008B00020097
:1052000027001F0008007300B60043001500B80017
:10521000A10079005F009C00420017004000A00040
:10522000BB00BC00C2005E00800017007700510088
:1052300074007C002D004A0033000C0082006A00DC
:105240004A0057009B00C6004500B30079001C00CF
:105250006E007F009C005100BB00270057000A0031
:105260005200AD0000003100670091008200B100E3
:10527000B4000A0030003900AD006E0049006D0036
:105280009A000B002E0015004C004500C700B3002B
:1052900009005B008F00560092005B00AE00C80062
:1052A000AA00AB000D007100A700800083005B0026
:1052B00073003300270064003F001800BE006C003C
:1052C0006B005A00B00017003000C7002300280010
:1052D000BE00B6005900B9003A00B8001700B3008C
:1052E0002200AE00A600160043006C006A005500C4
:1052F0006D002F00BE0014002700930038007300DB
:1053000049003100770024001A009E00BA007300A3
:10531000590005007700B8003100560069006300AD
:10532000B300280044006E0097009B00AC006C00A6
:1053300043001C0099000F002B00120018001B00F6
:10534000700037007300590050006400A600C800C8
:105350004C0015000A005A0048006800360005009D
:1053600012003300C5006300090051002D00C10088
:10537000100043002D00550022006A000C001B00A5
:10538000000078004B0004005F0072003A00BB0090
:1053900020007D000D005700530052004400220001
:1053A0005C0097005D0069001B002C00B9004F00F5
:1053B0005F005A0033001900B70025007200030097
:1053C00026006C00AE00C600BB001700790030005C
:1053D000A40046003300A90053000D0080000F0018
:1053E0003D007300AF002C001D0099002A0003004F
:1053F000AB003C0020000A005B00AA00B50085005D
:10540000280074004300480049000200B600440030
:10541000BF001C007200770040002300AD0049006F
:105420005F00A700740012002F00370010004F002B
:105430001600B60067001C00A6000E0029005C00E4
:10544000930057003D001F006000B80022001200CA
:105450009B002A003D006E0034001F0072001F00F8
:105460006100A7004D007F0081008800600080007F
:105470009000730042002E002F0018005B002400F3
:1054800006000D009700480015000B0023009C004B
:105490000400B8000F00720062000F001D00C6007B
:1054A000460024003F003B009A00830011003700B3
:1054B000A0009B00AF002200B600C0005F002100EA
:1054C000C1007D00B100B9001A006D0072002D000E
:1054D0002000A600AF0059003300A800A200B100D0
:1054E0009A007A00B2006F0007007B0064004A0057
:1054F00006002500A700950025003D00B800240007
:10550000C5005E0048009B0076000E00B4008200DB
:10551000160099000600C300C600BC008B004A00BC
:10552000C2001400A7009A000300840017004E0078
:1055300082009200210095006F006C00350056003B
:105540001E00300014009800720019006300A300D0
:1055500058009C002500B400250085008C004E00FA
:10556000A500B6003600400044007A0031003A0041
:10557000730070002800AE006900A800B7007F002B
:10558000150095005B009A002A00B8006100AF008A
:105590004A0013004700C5005400050079004A0086
:1055A0009A0053008E00700090000000C200680056
:1055B000370004008700AD00950005000800C0001A
:1055C0001300C40002007B00A8003E00C2006E0071
:1055D0007F001F00B900AD004500950001003200BA
:1055E000A2003800C2009800C80018003000C300B4
:1055F00095008B006D004B00B700830084000A000B
:10560000BC0030009B000F00A600C2009D00B60049
:10561000740089006C002900A00028004C004B0099
:1056200079004A001F0031001400C400AA00C6001F
:105630008E004F002F000800AF000E008700C8004A
:105640000A0000001100BE007D002C0082007800DE
:105650002200750038008A0073007A0006007E0080
:105660004B009700A1002F000D002C0055005300A7
:105670004B0010005A0064006F002F00A20052007F
:105680005F00B9007C00B700A2001B001800830077
:10569000BB00C1006900AA0087009D001200310014
:1056A000B70098009800B900C0003A005B00700095
:1056B000760003002A003F00B700B0007E003C00E7
:1056C000A000BC004A008F00080064008100800038
:1056D00004001E00C60037001F00430072001100C6
:1056E0008300B10028006E0000004900380025004A
:1056F000A0008400C1000D00150062006B002300B3
:1057000033001D008B00C40009009E004E006C0099
:105710001E00910098006600200073003B004900C5
:105720007800AC008C002800630032000F006F008E
:105730000000870052002B003A0021009A000C0064
:105740008100C10044004800870032006B00AD00BA
:10575000860057002F000800B8006700B6009F00C1
:105760003F0087000D000700A7007400A900490052
:10577000A800BB0082003D009A00AB0061004E0013
:105780004300B20042006300B2009F00BA0066000E
:105790005B004100200046009A00B300C600710083
:1057A0000B006200740018005F007B0056009D0033
:1057B00066006C001B009600BB0019007700120009
:1057C000420097000900B5008B0018005400BD008E
:1057D000060074008E00AF001F002600B0004000DD
:1057E0006D008C0097006E00060049006C005F00A1
:1057F000AB00A9007C0002002D003E00AB00690058
:105800002B00670030001A002C0073007B000000A2
:105810006B008000310000007800730097002900C1
:105820002500BA006C003E001E00750091006D005E
:1058300030004C002E005A0034005500BB007300AD
:1058400022005B00C60092008C002F00C1000800FF
:105850008200190078001E008D00BF008F00A40098
:10586000BC00C300200051007A0090004800760080
:105870008D00B5005A005A00880035003F006F00C7
:10588000C000C3008F001C005400C0009A00B60086
:105890008000C300B80080002200BA007F0023000F
:1058A0005000BC002F00A1003600BE008E00830017
:1058B0009E004D000A0042003200360035003700DD
:1058C000BE0096002500A7009F002F002B00A80017
:1058D00057002E0081009F00A800AA003500AE00EE
:1058E00089000B008B0059000D002300A30032003B
:1058F0008D000E0026004D009F0085000000C500B1
:105900000E00820068002700420046003700840035
:105910005D002D007F00B500750095002000AC00F3
:105920007900A500A10030000A00C1007A004B00F8
:105930002A0041004D00B9003A00480065005200BD
:10594000B0009D001A0085007F003200A2006E00AA
:10595000AF0060000B00250052005900A000780045
:105960005A00BE002C0004004C008C00AC00630008
:105970008C00A200550014009900C40081009F0013
:105980006E005900B0006D0049007F0064002800DF
:10599000330092004A00B70050004E0052000B0046
:1059A00026004C00B30083003B0052001F006F0034
:1059B00018004B00700029004600B0000C00990050
:1059C000A5002A00AE0027004200B500AA00A000F2
:1059D000B700BD005E0030008C00A3001200840000
:1059E00045002B001E00BE001000A600C300B5003D
:1059F0000B00140034004A0038001D0047005E0010
:105A0000C600A1007800B000510024003600C2009A
:105A10008D0041006C0047007D008500B0002A0029
:105A20001100AC007C008100280063007A005D005A
:105A30007D00390053009500AC006900AC0068009F
:105A4000C8002800B400AD0069003F00BE00A000FF
:105A50000A0032001E004400690071006500160053
:105A60000E00B20042006C001F006F0022006C00AC
:105A7000760054002F005A0066007300A400030053
:105A80004C007C00BC0050009800B100C100AC008C
:105A9000060047001D004200AE00AE007C001A0068
:105AA0008800130080003D007100C4008300BB002B
:105AB0003900350034007200970065003E005E003A
:105AC0002E0058002F0086003D001A0027002800F5
:105AD00031005D009900500027008C00990077008C
