:100000000C943E000C9448000C9448000C9448005A
:100010000C9448000C9448000C9448000C94480040
:100020000C9448000C9448000C9448000C94480030
:100030000C9448000C9448000C9448000C94480020
:100040000C9448000C9448000C9448000C94480010
:100050000C9448000C9448000C9448000C94480000
:100060000C9448000C9448000C9448000C944800F0
:100070000C9448000C9448000C94480011241FBEB6
:10008000CFEFD0E1DEBFCDBF0E94A8000C94D90015
:100090000C940000CF93DF93CDB7DEB72D970FB64A
:1000A000F894DEBF0FBECDBF81E090E09B838A83D2
:1000B00082E090E09D838C832A813B818C819D81AD
:1000C000820F931F9F838E832A813B818C819D8128
:1000D000280F391F8E819F81820F931F99878887F0
:1000E0002A813B818C819D81280F391F8E819F81C0
:1000F000280F391F88859985820F931F9B878A87D0
:100100002A813B818C819D81280F391F8E819F819F
:10011000280F391F88859985280F391F8A859B8567
:10012000820F931F9D878C8784E6898303C0898112
:100130008150898389818823D1F78C859D852D966F
:100140000FB6F894DEBF0FBECDBFDF91CF910895FB
:10015000CF93DF931F92CDB7DEB785E490E025E41F
:1001600030E0F90120812160FC01208385E490E0EA
:1001700025E430E0F90120812460FC0120838EE633
:1001800090E02EE630E0F90120812160FC0120831F
:1001900084E890E0FC01118210820E944A0084E60B
:1001A000898303C089818150898389818823D1F71C
:0601B000F4CFF894FFCF2C
:00000001FF
