:100000000C9438000C9455000C9455000C94550039
:100010000C9455000C9455000C9455000C9455000C
:100020000C9455000C9455000C9455000C945500FC
:100030000C9455000C9455000C9455000C945500EC
:100040000C9455000C9455000C9455000C945500DC
:100050000C9455000C9455000C9455000C945500CC
:100060000C9455000C9455000C9455000C945500BC
:1000700011241FBECFEFD0E1DEBFCDBF11E0A0E065
:10008000B1E0ECE6F1E002C005900D92A030B107BE
:10009000D9F711E0A0E0B1E001C01D92A030B10796
:1000A000E1F70E9457000C94B5000C940000CF9328
:1000B000DF93CDB7DEB724970FB6F894DEBF0FBE3F
:1000C000CDBF81E090E09C838B838CE291E09A83AA
:1000D000898389819A812B813C81AC01B90181E0BE
:1000E0000E947D0080E090E024960FB6F894DEBF79
:1000F0000FBECDBFDF91CF910895CF93DF93CDB7E2
:10010000DEB72B970FB6F894DEBF0FBECDBF8F833F
:10011000798768875B874A878F81282F332727FD58
:10012000309588859985820F931F9E838D838F815B
:10013000282F332727FD30958A859B85821B930BBB
:100140009C838B832D813E818B819C81820F931FA9
:100150009A83898389819A812B960FB6F894DEBFA2
:0C0160000FBECDBFDF91CF910895FFCFFF
:00000001FF
