:100000000C9434000C9446000C9446000C9446006A
:100010000C9446000C9446000C9446000C94460048
:100020000C9446000C9446000C9446000C94460038
:100030000C9446000C9446000C9446000C94460028
:100040000C9446000C9446000C9448000C94460016
:100050000C9446000C9446000C9446000C94460008
:100060000C9446000C94460011241FBECFEFD4E040
:10007000DEBFCDBF11E0A0E0B1E001C01D92A43011
:10008000B107E1F70E9473000C94E7000C940000A4
:100090001F920F920FB60F9211248F939F93AF93DD
:1000A000BF93DF93CF93CDB7DEB7809100019091DE
:1000B0000101A0910201B09103010196A11DB11DA2
:1000C0008093000190930101A0930201B09303017A
:1000D000CF91DF91BF91AF919F918F910F900FBE04
:1000E0000F901F901895DF93CF93CDB7DEB7299768
:1000F0000FB6F894DEBF0FBECDBF10920001109274
:1001000001011092020110920301AEE6B0E0EEE6AA
:10011000F0E0808181608C93A5E4B0E0E5E4F0E05C
:10012000808181608C93789483EF90E0A0E0B0E0D0
:100130008E839F83A887B98780E28D8384E690E0D1
:100140009C838B838CE291E09A8389832B813C8111
:1001500049815A8181E0B9010E94AF00FFCFDF934E
:10016000CF93CDB7DEB72B970FB6F894DEBF0FBE97
:10017000CDBF8F83798768875B874A878F81282FD8
:10018000332727FD30958A859B85820F931F9E8399
:100190008D838F81282F332727FD30958A859B8576
:1001A000821B930B9C838B832D813E818B819C8151
:1001B000820F931F9A83898389819A812B960FB628
:1001C000F894DEBF0FBECDBFCF91DF910895F894B4
:0201D000FFCF5F
:00000001FF
