:100000000C943E000C9448000C9448000C9448005A
:100010000C9448000C9448000C9448000C94480040
:100020000C9448000C9448000C9448000C94480030
:100030000C9448000C9448000C9448000C94480020
:100040000C9448000C9448000C944A000C9448000E
:100050000C9448000C9448000C9448000C94480000
:100060000C9448000C9448000C9448000C944800F0
:100070000C9448000C9448000C94480011241FBEB6
:10008000CFEFD0E1DEBFCDBF0E9463000C948E00A5
:100090000C9400001F920F9200905F000F921124A9
:1000A0008F93CF93DF931F92CDB7DEB789818F5F98
:1000B00089830F90DF91CF918F910F9000925F0015
:1000C0000F901F901895CF93DF93CDB7DEB785E4DF
:1000D00090E025E430E0F90120812160FC012083DB
:1000E0008EE690E02EE630E0F90120812160FC01EF
:1000F000208384E890E0FC011182108278940E94B1
:100100008200FDCFCF93DF93CDB7DEB78DE590E0D2
:10011000FC0180819181DF91CF910895F894FFCF08
:00000001FF
