:100000000C9438000C9455000C9455000C94550039
:100010000C9455000C9455000C9455000C9455000C
:100020000C9455000C9455000C9455000C945500FC
:100030000C9455000C9455000C9455000C945500EC
:100040000C9455000C9455000C9455000C945500DC
:100050000C9455000C9455000C9455000C945500CC
:100060000C9455000C9455000C9455000C945500BC
:1000700011241FBECFEFD0E1DEBFCDBF11E0A0E065
:10008000B1E0E2EDF0E002C005900D92A030B107C2
:10009000D9F711E0A0E0B1E001C01D92A030B10796
:1000A000E1F70E9467000C9468000C940000181699
:1000B000190644F420E030E00197280F391F00971B
:1000C000D9F702C020E030E0820F931F0895FFCFE0
:0200D000FFCF60
:00000001FF
