:100000000C9438000C9455000C9455000C94550039
:100010000C9455000C9455000C9455000C9455000C
:100020000C9455000C9455000C9455000C945500FC
:100030000C9455000C9455000C9455000C945500EC
:100040000C9455000C9455000C9455000C945500DC
:100050000C9455000C9455000C9455000C945500CC
:100060000C9455000C9455000C9455000C945500BC
:1000700011241FBECFEFD0E1DEBFCDBF11E0A0E065
:10008000B1E0EAEDF1E002C005900D92A030B107B9
:10009000D9F711E0A0E0B1E001C01D92A030B10796
:1000A000E1F70E9457000C94EC000C940000CF93F1
:1000B000DF93CDB7DEB729970FB6F894DEBF0FBE3A
:1000C000CDBF83EF90E0A0E0B0E08E839F83A88750
:1000D000B98780E28D8384E690E09C838B838CE2F9
:1000E00091E09A8389830E947600FFCFCF93DF93BC
:1000F000CDB7DEB721970FB6F894DEBF0FBECDBFE8
:1001000089E089830E948D0021960FB6F894DEBFA6
:100110000FBECDBFDF91CF910895CF93DF93CDB7C1
:10012000DEB726970FB6F894DEBF0FBECDBF8AE0CC
:1001300090E09E838D838CE090E09C838B838B8109
:100140009C812D813E81AC01B90181E00E94B80003
:100150009A83898389819A8101969A8389832696D5
:100160000FB6F894DEBF0FBECDBFDF91CF910895DB
:10017000CF93DF93CDB7DEB72B970FB6F894DEBFE2
:100180000FBECDBF8F83798768875B874A878F8152
:10019000282F33278A859B85820F931F9E838D830B
:1001A0008F81282F33278A859B85821B930B9C8305
:1001B0008B832D813E818B819C81820F931F9A833B
:1001C000898389819A812B960FB6F894DEBF0FBE82
:0A01D000CDBFDF91CF910895FFCF5E
:00000001FF
