:100000000C943E000C945B000C945B000C945B0021
:100010000C945B000C945B000C945B000C945B00F4
:100020000C945B000C945B000C945B000C945B00E4
:100030000C945B000C945B000C945B000C945B00D4
:100040000C945B000C945B000C945D000C945B00C2
:100050000C945B000C945B000C945B000C945B00B4
:100060000C945B000C945B000C945B000C945B00A4
:100070000C945B000C945B000C945B0011241FBE7D
:10008000CFEFD0E1DEBFCDBF11E0A0E0B1E0E0E016
:10009000F8E002C005900D92AA31B107D9F721E02E
:1000A000AAE1B1E001C01D92A832B207E1F70E94B7
:1000B000D1000C94FE030C9400001F920F920FB617
:1000C0000F9211242F933F934F935F936F937F93DE
:1000D0008F939F93AF93BF93EF93FF93CF93DF9350
:1000E000CDB7DEB72897DEBFCDBF20911A01309182
:1000F0001B0180910001909101012817390788F1B7
:1001000080911C0190911D01A0911E01B0911F01D1
:100110009C014AE050E0CE010196BC01C9010E9459
:10012000B903CE0101960E949A0382E091E00E94F9
:100130009A0380911C0190911D01A0911E01B09124
:100140001F010196A11DB11D80931C0190931D01FB
:10015000A0931E01B0931F0110921B0110921A016F
:1001600009C080911A0190911B01019690931B0187
:1001700080931A012896F894DEBFCDBFDF91CF910E
:10018000FF91EF91BF91AF919F918F917F916F916F
:100190005F914F913F912F910F900FBE0F901F9045
:1001A0001895CF93DF93CDB7DEB76A970FB6F89463
:1001B000DEBF0FBECDBFCE0101969A8B898BE4E0E6
:1001C000F1E0FC8BEB8BF8E0FD8BEB89FC89008088
:1001D0008B899C8901969C8B8B8BE989FA8900829B
:1001E00089899A8901969A8B898B9D8991509D8BDB
:1001F000ED89EE2351F7CE0109969F8B8E8BFE0180
:100200003196F98FE88FF8E0FA8FE88DF98D00804C
:10021000888D998D0196998F888FEE89FF8900824C
:100220008E899F8901969F8B8E8B9A8D91509A8F84
:10023000EA8DEE2351F7CE0109960E9437018CE03A
:1002400091E00E949A03AEE6B0E0EEE6F0E0808135
:1002500081608C93E4E8F0E011821082A5E4B0E0C4
:10026000E5E4F0E0808184608C937894FFCFCF93B5
:10027000DF9300D0CDB7DEB79A83898389819A81D5
:1002800027E0FC01A0E2B1E001900D922A95E1F790
:1002900089819A81FC0180819181A281B38181153C
:1002A000FBE49F07A105B10509F4BFC081302BE431
:1002B0009207A105B10558F5803CE2E19E07A10532
:1002C000B10509F479C0813CF2E19F07A105B105B0
:1002D00078F4803B24E09207A105B10509F444C0FD
:1002E0008036E9E09E07A105B10509F451C00EC1B1
:1002F0008038F5E29F07A105B10509F470C080348C
:1003000028E39207A105B10509F47CC0FFC081155F
:10031000E1EE9E07A105B10509F4C0C08130F1EE00
:100320009F07A105B10578F4803820E79207A10561
:10033000B10509F48DC08115E6E99E07A105B10557
:1003400009F499C0E3C08115FCE29F07F1E0AF0713
:10035000B10509F4B6C0811522EC920721E0A2078D
:10036000B10509F4C1C0D2C080EC90E020EC30E0CF
:10037000F90120812260FC01208385EC90E024E0DB
:10038000FC01208384EC90E021E1FC012083BEC0CD
:1003900080EC90E020EC30E0F90120812260FC014B
:1003A000208385EC90E022E0FC01208384EC90E047
:1003B00028E0FC012083AAC080EC90E020EC30E033
:1003C000F90120812D7FFC01208385EC90E0FC0168
:1003D000108284EC90E021E8FC01208397C080EC3F
:1003E00090E020EC30E0F90120812D7FFC0120839A
:1003F00085EC90E0FC01108284EC90E020E4FC01AC
:10040000208384C080EC90E020EC30E0F901208172
:100410002260FC01208385EC90E0FC01108284ECDA
:1004200090E026E5FC01208371C080EC90E020EC98
:1004300030E0F90120812260FC01208385EC90E00E
:10044000FC01108284EC90E020E4FC0120835EC07B
:1004500080EC90E020EC30E0F90120812260FC018A
:10046000208385EC90E0FC01108284EC90E02AE28D
:10047000FC0120834BC080EC90E020EC30E0F901DF
:1004800020812260FC01208385EC90E0FC01108239
:1004900084EC90E020E2FC01208338C080EC90E006
:1004A00020EC30E0F90120812260FC01208385EC02
:1004B00090E0FC01108284EC90E025E1FC012083B7
:1004C00025C080EC90E020EC30E0F90120812D7F08
:1004D000FC01208385EC90E0FC01108284EC90E02C
:1004E00027E0FC01208312C080EC90E020EC30E09B
:1004F000F90120812260FC01208385EC90E0FC0161
:10050000108284EC90E02AE0FC01208382EC90E0F1
:1005100022EC30E0F90120812F7CFC0120838981CD
:100520009A81FC018481882F90E08130910521F02F
:100530008230910559F014C082EC90E022EC30E05A
:10054000F90120812062FC0120830AC082EC90E046
:1005500022EC30E0F90120812063FC0120830000BF
:1005600081EC90E021EC30E0F90120812B7FFC014F
:10057000208382EC90E022EC30E0F9012081297F99
:10058000FC01208389819A81FC018581882F90E07C
:1005900087309105E1F08830910544F4853091056C
:1005A00009F44EC08630910541F04BC0883091056A
:1005B000C1F08930910541F144C082EC90E022EC19
:1005C00030E0F90120812260FC0120833AC082ECF6
:1005D00090E022EC30E0F90120812460FC012083CE
:1005E00030C082EC90E022EC30E0F9012081246000
:1005F000FC01208382EC90E022EC30E0F9012081C4
:100600002260FC0120831DC081EC90E021EC30E0F1
:10061000F90120812460FC01208382EC90E022EC2F
:1006200030E0F90120812460FC01208382EC90E01D
:1006300022EC30E0F90120812260FC01208301C01E
:10064000000089819A81FC018681882F90E08130A9
:10065000910521F08230910559F014C082EC90E0B0
:1006600022EC30E0F9012081277FFC0120830AC0C1
:1006700082EC90E022EC30E0F90120812860FC015E
:100680002083000081EC90E021EC30E0F901208132
:100690002861FC0120830F900F90DF91CF91089586
:1006A000CF93DF931F92CDB7DEB78983000080EC34
:1006B00090E0FC018081882F90E08072992700975C
:1006C000B1F380EC90E020EC30E0F901208120646F
:1006D000FC01208386EC90E02981FC01208381E0ED
:1006E000809327010F90DF91CF910895CF93DF93EF
:1006F00000D000D0CDB7DEB79B838A836C8319828C
:100700000EC08981882F90E02A813B81820F931F40
:10071000FC0180810E94500389818F5F89839981C8
:100720008C81981770F30F900F900F900F90DF91BE
:10073000CF910895CF93DF9300D0CDB7DEB79A83E2
:10074000898389819A810E94B003282F89819A81A7
:10075000622F0E9476030F900F90DF91CF91089542
:10076000FC0101900020E9F7809590958E0F9F1F66
:100770000895FB019F01E8944230C4F04532B4F47F
:100780004A3029F497FB1EF4909581959F4F642F72
:1007900077270E94EA03805D8A330CF0895D81939C
:1007A000CB010097A1F716F45DE251931082C901C5
:1007B0000C94DA03DC01FC01672F71917723E1F7D8
:1007C000329704C07C916D9370836291AE17BF071E
:1007D000C8F30895AA1BBB1B51E107C0AA1FBB1F8A
:1007E000A617B70710F0A61BB70B881F991F5A95BD
:1007F000A9F780959095BC01CD010895F894FFCF9D
:100800002C010A0000C201000000080155415254A9
:0A0810002052656164792E0A000091
:00000001FF
