S0110000417672746573745F322E7372656399
S11300000C9438000C9442000C9442000C9442006E
S11300100C9442000C9442000C9442000C94420054
S11300200C9442000C9442000C9442000C94420044
S11300300C9442000C9442000C9442000C94420034
S11300400C9442000C9442000C9442000C94420024
S11300500C9442000C9442000C9442000C94420014
S11300600C9442000C9442000C9442000C94420004
S113007011241FBECFEFD0E1DEBFCDBF0E944400EC
S11300800C949A000C940000CF93DF9300D000D01E
S1130090CDB7DEB781E090E09A8389838CE291E06A
S11300A09C838B832B813C8189819A81A901BC012A
S11300B081E00E94640080E090E00F900F900F9028
S11300C00F90DF91CF910895CF93DF93CDB7DEB733
S11300D02B970FB6F894DEBF0FBECDBF8F83798701
S11300E068875B874A878F81282F30E088859985C8
S11300F0820F931F9A8389838F81882F90E02A85AA
S11301003B85A901481B590BCA019C838B83298118
S11301103A818B819C81820F931F9E838D838D8175
S11301209E812B960FB6F894DEBF0FBECDBFDF9134
S10B0130CF910895F894FFCF6C
S9030000FC
