:100000000C9438000C947C000C9455000C94550012
:100010000C9455000C9455000C9455000C9455000C
:100020000C9455000C9455000C9455000C945500FC
:100030000C9455000C9455000C9455000C945500EC
:100040000C9455000C9455000C9457000C945500DA
:100050000C9455000C9455000C9455000C945500CC
:100060000C9455000C9455000C9455000C945500BC
:1000700011241FBECFEFD0E1DEBFCDBF11E0A0E065
:10008000B1E0EEE3F1E002C005900D92A030B107BF
:10009000D9F711E0A0E0B1E001C01D92A430B10792
:1000A000E1F70E9487000C949E000C9400001F92C0
:1000B0000F920FB60F9211248F939F93AF93BF931C
:1000C0008091000190910101A0910201B091030182
:1000D0000196A11DB11D8093000190930101A09391
:1000E0000201B0930301BF91AF919F918F910F9047
:1000F0000FBE0F901F9018951F920F920FB60F9280
:1001000011240F900FBE0F901F9018950895109214
:1001100000011092010110920201109203018091DE
:100120006E00816080936E0085B5816085BD5298B8
:0E0130005A9AE89A109269007894FFCFFFCF98
:00000001FF
