S00D000074657374332E7372656324
S11300000C9438000C9442000C9442000C9442006E
S11300100C9442000C9442000C9442000C94420054
S11300200C9442000C9442000C9442000C94420044
S11300300C9442000C9442000C9442000C94420034
S11300400C9442000C9442000C9442000C94420024
S11300500C9442000C9442000C9442000C94420014
S11300600C9442000C9442000C9442000C94420004
S113007011241FBECFEFD0E1DEBFCDBF0E944400EC
S11300800C9460000C940000CF93DF9300D000D058
S1130090CDB7DEB70FBEDEBF1A82198289819A817D
S11300A003969A83898383E090E09C838B832B81DE
S11300B03C8189819A81820F931F9C838B83FFCF1C
S10700C0F894FFCFDE
S9030000FC
