:100000000C943E000C9448000C9448000C9448005A
:100010000C9448000C9448000C9448000C94480040
:100020000C9448000C9448000C9448000C94480030
:100030000C9448000C9448000C9448000C94480020
:100040000C9448000C9448000C9448000C94480010
:100050000C9448000C9448000C9448000C94480000
:100060000C9448000C9448000C9448000C944800F0
:100070000C9448000C9448000C94480011241FBEB6
:10008000CFEFD0E1DEBFCDBF0E94BE000C94F200E6
:100090000C940000CF93DF9300D0CDB7DEB789E09A
:1000A00090E09A8389830E945E009A838983898184
:1000B0009A810F900F90DF91CF910895CF93DF93A6
:1000C00000D000D000D0CDB7DEB78AE090E09A83B0
:1000D00089838CE090E09C838B832B813C81898198
:1000E0009A81A901BC0181E090E00E9489009E8371
:1000F0008D838D819E8101969E838D838D819E81CE
:1001000026960FB6F894DEBF0FBECDBFDF91CF911C
:100110000895CF93DF93CDB7DEB72C970FB6F89441
:10012000DEBF0FBECDBF98878F837A8769875C87D4
:100130004B872F8138858B859C85820F931F9A83EF
:1001400089832B853C858F819885A901481B590B94
:10015000CA019C838B8329813A818B819C81820F88
:10016000931F9E838D838D819E812C960FB6F8946C
:10017000DEBF0FBECDBFDF91CF910895CF93DF9348
:10018000CDB7DEB72B970FB6F894DEBF0FBECDBF4D
:1001900085E490E025E430E0F90120812560FC0150
:1001A000208384E890E0FC011182108283EF90E0CC
:1001B000A0E0B0E089839A83AB83BC8380E28D8327
:1001C00084E690E09F838E838CE291E09987888714
:1001D0000E944A009B878A878A859B8501969B8718
:0801E0008A87F6CFF894FFCFE7
:00000001FF
