:100000000C943E000C945B000C945B000C945B0021
:100010000C945B000C945B000C945B000C945B00F4
:100020000C945B000C945B000C945B000C945B00E4
:100030000C945B000C945B000C945B000C945B00D4
:100040000C945B000C945B000C945B000C945B00C4
:100050000C945B000C945B000C945B000C945B00B4
:100060000C945B000C945B000C945B000C945B00A4
:100070000C945B000C945B000C945B0011241FBE7D
:10008000CFEFD0E1DEBFCDBF11E0A0E0B1E0E4E012
:10009000F3E002C005900D92A030B107D9F721E03E
:1000A000A0E0B1E001C01D92A030B207E1F70E94CC
:1000B0005D000C9480010C940000CF93DF93CDB7CA
:1000C000DEB72B970FB6F894DEBF0FBECDBFFF9300
:1000D000F1E1FF93F0E0FF93FF91CF93DF93FF9364
:1000E000C0E0D1E0F6E0F883FA83FC83F1E0F98325
:1000F000FB83FD83FF91DF91CF9183EF90E0A0E040
:10010000B0E088879987AA87BB8780E28F8384E6DF
:1001100090E09E838D838CE291E09C838B834D8164
:100120005E818F81992728853985BC01C9010E948C
:10013000D7009A838983FFCF7D91522F232F352FAC
:100140002727522F52955F702527522F5295507FA7
:100150003527522F5295452F507F4F70550F441F12
:1001600025273427019741F70895C0E0D1E0A88101
:10017000BA81AB1731F4A981BB81AB1711F4AA8105
:100180000CC0AC81BA81AB1731F4AD81BB81AB1728
:1001900011F4AA8102C0A881B981888399838A83D6
:1001A0009B838C839D8311901D920197E1F70F92A1
:1001B0000F922F933F934F935F937F938F939F93D0
:1001C000AF93BF932FEF3FEF2197DE019881898195
:1001D00021960E949C00BF91AF919F918F917F913A
:1001E0005F914F9125973883298325963F912F91D1
:1001F0001F928F939F93AF93BF93EF93FF9321979A
:10020000FE01988189812196CF93DF930E94B500EA
:10021000DF91CF910E94D300FF91EF91BF91AF91F9
:100220009F918F911F90CF93DF93CDB7DEB7269725
:100230000FB6F894DEBF0FBECDBFFF93FCE0FF9377
:10024000F0E0FF93FF919A8389837C836B835E83C5
:100250004D8329813A818B819C81280F391F8D81A3
:100260009E81820F931F26960FB6F894DEBF0FBEB5
:10027000CDBFDF91CF912F933F936F934F935F93B8
:100280007F938F939F93AF93BF932FEF3FEF88811F
:1002900021979881AC2FBD2F21960E949C00BF9181
:1002A000AF919F918F917F915F914F912597688139
:1002B000631729F46981621711F425961AC02596EF
:1002C0001F928F939F93AF93BF93EF93FF93888178
:1002D00021979881E6E0F1E0AC2FBD2F21960E9496
:1002E000D300FF91EF91BF91AF919F918F911F909C
:1002F00000C06F913F912F911F901F90112408957E
:04030000F894FFCF9F
:00000001FF
