:100000003DC00000A3C00000C3C0000047C0000006
:1000100073C0000043C0000041C000003FC00000AA
:100020003DC000003BC0000039C0000037C00000E8
:1000300035C0000033C0000031C000002FC00000F8
:100040002DC000002BC000002AC0000027C0000007
:1000500025C0000023C0000021C000001FC0000018
:100060001DC000001BC0000019C0000017C0000028
:1000700015C0000013C0000011C0000011241FBEF5
:10008000CFEFD0E1DEBFCDBF21E0A0E0B1E001C005
:100090001D92A430B207E1F7A8D01DC1B1CF1F92C5
:1000A0000F9200905F000F9211248F939F93AF9354
:1000B000BF93CF93DF93CDB7DEB7809100019091CE
:1000C0000101A0910201B09103010196A11DB11D92
:1000D0008093000190930101A0930201B09303016A
:1000E000DF91CF91BF91AF919F918F910F9000922F
:1000F0005F000F901F9018951F920F9200905F0065
:100100000F9211248F939F93EF93FF93CF93DF93DD
:100110001F92CDB7DEB7198289E290E0FC018081A1
:10012000882F90E080729927009719F489818F5F5A
:1001300089830F90DF91CF91FF91EF919F918F91E4
:100140000F9000925F000F901F9018951F920F92D2
:1001500000905F000F9211248F939F93CF93DF93B2
:1001600000D0CDB7DEB781E090E09A8389838981A2
:100170009A8101969A8389830F900F90DF91CF9196
:100180009F918F910F9000925F000F901F90189594
:100190001F920F9200905F000F9211248F939F93F4
:1001A000AF93BF93CF93DF93CDB7DEB780910001BC
:1001B00090910101A0910201B09103010197A10961
:1001C000B1098093000190930101A0930201B093C3
:1001D0000301DF91CF91BF91AF919F918F910F90CC
:1001E00000925F000F901F901895CF93DF93CDB7CB
:1001F000DEB729970FB6F894DEBF0FBECDBF1092C1
:1002000000011092010110920201109203018EE68A
:1002100090E02EE630E0F90120812160FC0120838E
:1002200085E490E025E430E0F90120812160FC01C3
:100230002083789483EF90E0A0E0B0E089839A83F4
:10024000AB83BC8380E28D8384E690E09F838E83C2
:100250008CE291E099878887288539858E819F81F6
:10026000A901BC0181E001D0FFCFCF93DF93CDB7CF
:10027000DEB72B970FB6F894DEBF0FBECDBF8F83CE
:10028000798768875B874A878F81282F30E08A8546
:100290009B85820F931F9A8389838F81882F90E09B
:1002A0002A853B85A901481B590BCA019C838B8376
:1002B00029813A818B819C81820F931F9E838D833C
:1002C0008D819E812B960FB6F894DEBF0FBECDBFF9
:0A02D000DF91CF910895F894FFCF5D
:00000001FF
