:100000000C9438000C9455000C9455000C94550039
:100010000C9455000C9455000C9455000C9455000C
:100020000C9455000C9455000C9455000C945500FC
:100030000C9455000C9455000C9455000C945500EC
:100040000C9455000C9455000C9455000C945500DC
:100050000C9455000C9455000C9455000C945500CC
:100060000C9455000C9455000C9455000C945500BC
:1000700011241FBECFEFD0E1DEBFCDBF11E0A0E065
:10008000B1E0EEEDF2E002C005900D92A030B107B4
:10009000D9F711E0A0E0B1E001C01D92A030B10796
:1000A000E1F70E9457000C946E010C940000CF936E
:1000B000DF93CDB7DEB72B970FB6F894DEBF0FBE38
:1000C000CDBF41E14F9340E04F9383EF90E0A0E03C
:1000D000B0E088879987AA87BB8780E28F8384E610
:1000E00090E09E838D838CE291E09C838B834D8195
:1000F0005E818F81992728853985BC01C9010E94BD
:1001000084009A838983FFCF0F920F922F933F939E
:100110004F935F937F938F939F93AF93BF932FEFF3
:100120003FEF8881219798812196AC2FAA95BD2F0A
:100130007D91522F232F352F2727522F52955F70F5
:100140002527522F5295507F3527522F5295452FF4
:10015000507F4F70550F441F25273427019741F7D3
:10016000BF91AF919F918F917F915F914F91259713
:100170003883298325963F912F911F928F939F93C8
:10018000AF93BF93EF93FF93888121979881A6E067
:10019000B1E0EC2FFD2F2196CF93DF93C0E0D1E0AB
:1001A000888399838A839B838C839D83DF91CF91FE
:1001B00011901D920197E1F7FF91EF91BF91AF91DF
:1001C0009F918F911F90CF93DF93CDB7DEB7269786
:1001D0000FB6F894DEBF0FBECDBF0F920F924F93B4
:1001E0005F9321974CE0498350E0588321965F91BB
:1001F0004F919A8389837C836B835E834D832981AE
:100200003A818B819C81280F391F8D819E81820FBD
:10021000931F26960FB6F894DEBF0FBECDBFDF91B9
:10022000CF912F933F936F934F935F937F938F93D0
:100230009F93AF93BF932FEF3FEF888121979881D2
:10024000AC2FBD2F21967D91522F232F352F27279D
:10025000522F52955F702527522F5295507F352788
:10026000522F5295452F507F4F70550F441F252711
:100270003427019741F7BF91AF919F918F917F9163
:100280005F914F9125976881631729F469816217FF
:1002900011F425961CC025961F928F939F93AF93C0
:1002A000BF93EF93FF93888121979881E6E0F1E077
:1002B000AC2FBD2F219611901D920197E1F7FF9170
:1002C000EF91BF91AF919F918F911F9000C06F915F
:0E02D0003F912F911F901F9011240895FFCF92
:00000001FF
